{
  "_format": "hh-sol-artifact-1",
  "contractName": "UnlockPrimeTokenURIHook",
  "sourceName": "contracts/UnlockPrimeTokenURIHook.sol",
  "abi": [
    {
      "inputs": [
        {
          "internalType": "uint256",
          "name": "value",
          "type": "uint256"
        },
        {
          "internalType": "uint256",
          "name": "length",
          "type": "uint256"
        }
      ],
      "name": "StringsInsufficientHexLength",
      "type": "error"
    },
    {
      "inputs": [
        {
          "internalType": "address",
          "name": "lockAddress",
          "type": "address"
        },
        {
          "internalType": "address",
          "name": "operator",
          "type": "address"
        },
        {
          "internalType": "address",
          "name": "owner",
          "type": "address"
        },
        {
          "internalType": "uint256",
          "name": "keyId",
          "type": "uint256"
        },
        {
          "internalType": "uint256",
          "name": "expirationTimestamp",
          "type": "uint256"
        }
      ],
      "name": "tokenURI",
      "outputs": [
        {
          "internalType": "string",
          "name": "",
          "type": "string"
        }
      ],
      "stateMutability": "view",
      "type": "function"
    }
  ],
  "bytecode": "0x6080604052604051806101a001604052806040518060200160405280600081525081526020016040518060400160405280600781526020017f4a616e756172790000000000000000000000000000000000000000000000000081525081526020016040518060400160405280600881526020017f466562727561727900000000000000000000000000000000000000000000000081525081526020016040518060400160405280600581526020017f4d6172636800000000000000000000000000000000000000000000000000000081525081526020016040518060400160405280600581526020017f417072696c00000000000000000000000000000000000000000000000000000081525081526020016040518060400160405280600381526020017f4d6179000000000000000000000000000000000000000000000000000000000081525081526020016040518060400160405280600481526020017f4a756e650000000000000000000000000000000000000000000000000000000081525081526020016040518060400160405280600481526020017f4a756c790000000000000000000000000000000000000000000000000000000081525081526020016040518060400160405280600681526020017f417567757374000000000000000000000000000000000000000000000000000081525081526020016040518060400160405280600981526020017f53657074656d626572000000000000000000000000000000000000000000000081525081526020016040518060400160405280600781526020017f4f63746f6265720000000000000000000000000000000000000000000000000081525081526020016040518060400160405280600881526020017f4e6f76656d62657200000000000000000000000000000000000000000000000081525081526020016040518060400160405280600881526020017f446563656d626572000000000000000000000000000000000000000000000000815250815250600090600d6102f792919061030a565b5034801561030457600080fd5b50610706565b828054828255906000526020600020908101928215610352579160200282015b828111156103515782518290816103419190610634565b509160200191906001019061032a565b5b50905061035f9190610363565b5090565b5b80821115610383576000818161037a9190610387565b50600101610364565b5090565b5080546103939061044d565b6000825580601f106103a557506103c4565b601f0160209004906000526020600020908101906103c391906103c7565b5b50565b5b808211156103e05760008160009055506001016103c8565b5090565b600081519050919050565b7f4e487b7100000000000000000000000000000000000000000000000000000000600052604160045260246000fd5b7f4e487b7100000000000000000000000000000000000000000000000000000000600052602260045260246000fd5b6000600282049050600182168061046557607f821691505b6020821081036104785761047761041e565b5b50919050565b60008190508160005260206000209050919050565b60006020601f8301049050919050565b600082821b905092915050565b6000600883026104e07fffffffffffffffffffffffffffffffffffffffffffffffffffffffffffffffff826104a3565b6104ea86836104a3565b95508019841693508086168417925050509392505050565b6000819050919050565b6000819050919050565b600061053161052c61052784610502565b61050c565b610502565b9050919050565b6000819050919050565b61054b83610516565b61055f61055782610538565b8484546104b0565b825550505050565b600090565b610574610567565b61057f818484610542565b505050565b5b818110156105a35761059860008261056c565b600181019050610585565b5050565b601f8211156105e8576105b98161047e565b6105c284610493565b810160208510156105d1578190505b6105e56105dd85610493565b830182610584565b50505b505050565b600082821c905092915050565b600061060b600019846008026105ed565b1980831691505092915050565b600061062483836105fa565b9150826002028217905092915050565b61063d826103e4565b67ffffffffffffffff811115610656576106556103ef565b5b610660825461044d565b61066b8282856105a7565b600060209050601f83116001811461069e576000841561068c578287015190505b6106968582610618565b8655506106fe565b601f1984166106ac8661047e565b60005b828110156106d4578489015182556001820191506020850194506020810190506106af565b868310156106f157848901516106ed601f8916826105fa565b8355505b6001600288020188555050505b505050505050565b612be3806107156000396000f3fe608060405234801561001057600080fd5b506004361061002b5760003560e01c8063988b93ad14610030575b600080fd5b61004a60048036038101906100459190610a52565b610060565b6040516100579190610b5d565b60405180910390f35b6060600061006d856101e5565b60405160200161007d9190610ceb565b6040516020818303038152906040529050600080600061009c86610212565b92509250925060008083815481106100b7576100b6610d18565b5b906000526020600020016100ca83610241565b6100d386610241565b6040516020016100e59392919061124b565b60405160208183030381529060405290506000858260405160200161010b9291906124aa565b60405160208183030381529060405290506000610146826040516020016101329190612505565b60405160208183030381529060405261030f565b6040516020016101569190612568565b604051602081830303815290604052905060008160405160200161017a91906127ca565b60405160208183030381529060405290506101b38160405160200161019f9190612505565b60405160208183030381529060405261030f565b6040516020016101c39190612843565b6040516020818303038152906040529850505050505050505095945050505050565b606061020b8273ffffffffffffffffffffffffffffffffffffffff16601460ff16610481565b9050919050565b600080600061022e620151808561022991906128c3565b6106c7565b8093508194508295505050509193909250565b60606000600161025084610866565b01905060008167ffffffffffffffff81111561026f5761026e6128f4565b5b6040519080825280601f01601f1916602001820160405280156102a15781602001600182028036833780820191505090505b509050600082602001820190505b600115610304578080600190039150507f3031323334353637383961626364656600000000000000000000000000000000600a86061a8153600a85816102f8576102f7612865565b5b049450600085036102af575b819350505050919050565b606060008251036103315760405180602001604052806000815250905061047c565b6000604051806060016040528060408152602001612b6e60409139905060006003600285516103609190612923565b61036a91906128c3565b60046103769190612957565b67ffffffffffffffff81111561038f5761038e6128f4565b5b6040519080825280601f01601f1916602001820160405280156103c15781602001600182028036833780820191505090505b50905060018201602082018586518701602081018051600082525b82841015610437576003840193508351603f8160121c168701518653600186019550603f81600c1c168701518653600186019550603f8160061c168701518653600186019550603f81168701518653600186019550506103dc565b80825260038a51066001811461045457600281146104675761046f565b603d6001870353603d600287035361046f565b603d60018703535b5050505050505080925050505b919050565b60606000839050600060028460026104999190612957565b6104a39190612923565b67ffffffffffffffff8111156104bc576104bb6128f4565b5b6040519080825280601f01601f1916602001820160405280156104ee5781602001600182028036833780820191505090505b5090507f30000000000000000000000000000000000000000000000000000000000000008160008151811061052657610525610d18565b5b60200101907effffffffffffffffffffffffffffffffffffffffffffffffffffffffffffff1916908160001a9053507f78000000000000000000000000000000000000000000000000000000000000008160018151811061058a57610589610d18565b5b60200101907effffffffffffffffffffffffffffffffffffffffffffffffffffffffffffff1916908160001a905350600060018560026105ca9190612957565b6105d49190612923565b90505b6001811115610674577f3031323334353637383961626364656600000000000000000000000000000000600f84166010811061061657610615610d18565b5b1a60f81b82828151811061062d5761062c610d18565b5b60200101907effffffffffffffffffffffffffffffffffffffffffffffffffffffffffffff1916908160001a905350600483901c92508061066d90612999565b90506105d7565b50600082146106bc5784846040517fe22e27eb0000000000000000000000000000000000000000000000000000000081526004016106b39291906129d1565b60405180910390fd5b809250505092915050565b600080600080849050600062253d8c62010bd9836106e59190612a04565b6106ef9190612a04565b9050600062023ab18260046107049190612a48565b61070e9190612ac0565b9050600460038262023ab16107239190612a48565b61072d9190612a04565b6107379190612ac0565b826107429190612b2a565b9150600062164b096001846107579190612a04565b610fa06107649190612a48565b61076e9190612ac0565b9050601f6004826105b56107829190612a48565b61078c9190612ac0565b846107979190612b2a565b6107a19190612a04565b9250600061098f8460506107b59190612a48565b6107bf9190612ac0565b9050600060508261098f6107d39190612a48565b6107dd9190612ac0565b856107e89190612b2a565b9050600b826107f79190612ac0565b945084600c6108069190612a48565b6002836108139190612a04565b61081d9190612b2a565b9150848360318661082e9190612b2a565b606461083a9190612a48565b6108449190612a04565b61084e9190612a04565b92508298508197508096505050505050509193909250565b600080600090507a184f03e93ff9f4daa797ed6e38ed64bf6a1f01000000000000000083106108c4577a184f03e93ff9f4daa797ed6e38ed64bf6a1f01000000000000000083816108ba576108b9612865565b5b0492506040810190505b6d04ee2d6d415b85acef81000000008310610901576d04ee2d6d415b85acef810000000083816108f7576108f6612865565b5b0492506020810190505b662386f26fc10000831061093057662386f26fc10000838161092657610925612865565b5b0492506010810190505b6305f5e1008310610959576305f5e100838161094f5761094e612865565b5b0492506008810190505b612710831061097e57612710838161097457610973612865565b5b0492506004810190505b606483106109a1576064838161099757610996612865565b5b0492506002810190505b600a83106109b0576001810190505b80915050919050565b600080fd5b600073ffffffffffffffffffffffffffffffffffffffff82169050919050565b60006109e9826109be565b9050919050565b6109f9816109de565b8114610a0457600080fd5b50565b600081359050610a16816109f0565b92915050565b6000819050919050565b610a2f81610a1c565b8114610a3a57600080fd5b50565b600081359050610a4c81610a26565b92915050565b600080600080600060a08688031215610a6e57610a6d6109b9565b5b6000610a7c88828901610a07565b9550506020610a8d88828901610a07565b9450506040610a9e88828901610a07565b9350506060610aaf88828901610a3d565b9250506080610ac088828901610a3d565b9150509295509295909350565b600081519050919050565b600082825260208201905092915050565b60005b83811015610b07578082015181840152602081019050610aec565b60008484015250505050565b6000601f19601f8301169050919050565b6000610b2f82610acd565b610b398185610ad8565b9350610b49818560208601610ae9565b610b5281610b13565b840191505092915050565b60006020820190508181036000830152610b778184610b24565b905092915050565b600081905092915050565b7f3c746578742066696c6c3d22233630334445422220786d6c3a73706163653d2260008201527f707265736572766522207374796c653d2277686974652d73706163653a20707260208201527f652220666f6e742d73697a653d2232302220666f6e742d7765696768743d223660408201527f303022206c65747465722d73706163696e673d2230656d223e3c747370616e2060608201527f783d223237372220793d223537302e323733223e000000000000000000000000608082015250565b6000610c58609483610b7f565b9150610c6382610b8a565b609482019050919050565b6000610c7982610acd565b610c838185610b7f565b9350610c93818560208601610ae9565b80840191505092915050565b7f3c2f747370616e3e3c2f746578743e0000000000000000000000000000000000600082015250565b6000610cd5600f83610b7f565b9150610ce082610c9f565b600f82019050919050565b6000610cf682610c4b565b9150610d028284610c6e565b9150610d0d82610cc8565b915081905092915050565b7f4e487b7100000000000000000000000000000000000000000000000000000000600052603260045260246000fd5b7f3c746578742066696c6c3d22233630334445422220786d6c3a73706163653d2260008201527f707265736572766522207374796c653d2277686974652d73706163653a20707260208201527f652220666f6e742d73697a653d2232302220666f6e742d7765696768743d223660408201527f303022206c65747465722d73706163696e673d2230656d223e3c747370616e2060608201527f783d223237372220793d223635392e323733223e000000000000000000000000608082015250565b6000610e15609483610b7f565b9150610e2082610d47565b609482019050919050565b7f4e487b7100000000000000000000000000000000000000000000000000000000600052602260045260246000fd5b60006002820490506001821680610e7257607f821691505b602082108103610e8557610e84610e2b565b5b50919050565b60008190508160005260206000209050919050565b60008154610ead81610e5a565b610eb78186610b7f565b94506001821660008114610ed25760018114610ee757610f1a565b60ff1983168652811515820286019350610f1a565b610ef085610e8b565b60005b83811015610f1257815481890152600182019150602081019050610ef3565b838801955050505b50505092915050565b7f2000000000000000000000000000000000000000000000000000000000000000600082015250565b6000610f59600183610b7f565b9150610f6482610f23565b600182019050919050565b7f2c20000000000000000000000000000000000000000000000000000000000000600082015250565b6000610fa5600283610b7f565b9150610fb082610f6f565b600282019050919050565b7f262331303b3c2f747370616e3e3c747370616e20783d223237372220793d223660008201527f38332e323733223e262331303b3c2f747370616e3e3c747370616e20783d223260208201527f37372220793d223730372e323733223e262331303b3c2f747370616e3e3c747360408201527f70616e20783d223237372220793d223733312e323733223e262331303b3c2f7460608201527f7370616e3e3c747370616e20783d223237372220793d223735352e323733223e60808201527f262331303b3c2f747370616e3e3c747370616e20783d223237372220793d223760a08201527f37392e323733223e262331303b3c2f747370616e3e3c747370616e20783d223260c08201527f37372220793d223830332e323733223e262331303b3c2f747370616e3e3c747360e08201527f70616e20783d223237372220793d223832372e323733223e262331303b3c2f746101008201527f7370616e3e3c747370616e20783d223237372220793d223835312e323733223e6101208201527f262331303b3c2f747370616e3e3c747370616e20783d223237372220793d22386101408201527f37352e323733223e262331303b3c2f747370616e3e3c747370616e20783d22326101608201527f37372220793d223839392e323733223e262331303b3c2f747370616e3e3c74736101808201527f70616e20783d223237372220793d223932332e323733223e262331303b3c2f746101a08201527f7370616e3e3c747370616e20783d223237372220793d223934372e323733223e6101c08201527f262331303b3c2f747370616e3e3c2f746578743e0000000000000000000000006101e082015250565b60006112346101f483610b7f565b915061123f82610fbb565b6101f482019050919050565b600061125682610e08565b91506112628286610ea0565b915061126d82610f4c565b91506112798285610c6e565b915061128482610f98565b91506112908284610c6e565b915061129b82611226565b9150819050949350505050565b7f3c7376672077696474683d223130323422206865696768743d2231303234222060008201527f76696577426f783d2230203020313032342031303234222066696c6c3d226e6f60208201527f6e652220786d6c6e733d22687474703a2f2f7777772e77332e6f72672f32303060408201527f302f737667223e00000000000000000000000000000000000000000000000000606082015250565b6000611350606783610b7f565b915061135b826112a8565b606782019050919050565b7f3c7374796c653e746578742c20747370616e207b20666f6e742d66616d696c7960008201527f3a2022496e746572222c20417269616c2c2022526f626f746f20436f6e64656e60208201527f736564222c20224f70656e2053616e73222c2073616e733b20207d3c2f73747960408201527f6c653e0000000000000000000000000000000000000000000000000000000000606082015250565b600061140e606383610b7f565b915061141982611366565b606382019050919050565b7f3c726563742077696474683d223130323422206865696768743d22313032342260008201527f2066696c6c3d222346324336354522202f3e203c672066696c7465723d22757260208201527f6c282366696c746572305f645f323031385f3236303729223e203c6720636c6960408201527f702d706174683d2275726c2823636c6970305f323031385f3236303729223e2060608201527f3c7061746820643d224d3233372035344838313156313236483233375635345a60808201527f222066696c6c3d222346354635463522202f3e203c7061746820643d224d343860a08201527f38203930433438382038372e37393039203438392e373931203836203439322060c08201527f383648353536433535382e323039203836203536302038372e3739303920353660e08201527f30203930563930433536302039322e32303931203535382e32303920393420356101008201527f353620393448343932433438392e373931203934203438382039322e323039316101208201527f203438382039305639305a222066696c6c3d222346324336354522202f3e203c6101408201527f726563742077696474683d2235373422206865696768743d22313636222074726101608201527f616e73666f726d3d227472616e736c617465283233372031323629222066696c6101808201527f6c3d222346354635463522202f3e203c746578742066696c6c3d2223323131386101a08201527f31342220786d6c3a73706163653d22707265736572766522207374796c653d226101c08201527f77686974652d73706163653a207072652220666f6e742d73697a653d223238226101e08201527f206c65747465722d73706163696e673d2230656d223e3c747370616e20783d226102008201527f3237372220793d223233372e383634223e627920556e6c6f636b204c6162733c6102208201527f2f747370616e3e3c2f746578743e203c746578742066696c6c3d2223323131386102408201527f31342220786d6c3a73706163653d22707265736572766522207374796c653d226102608201527f77686974652d73706163653a207072652220666f6e742d73697a653d223132226102808201527f206c65747465722d73706163696e673d2230656d223e3c747370616e20783d226102a08201527f3237372220793d223230332e383634223e262331303b3c2f747370616e3e3c2f6102c08201527f746578743e203c746578742066696c6c3d2275726c28237061696e74305f6c696102e08201527f6e6561725f323031385f32363037292220786d6c3a73706163653d22707265736103008201527f6572766522207374796c653d2277686974652d73706163653a207072652220666103208201527f6f6e742d73697a653d2234382220666f6e742d7765696768743d2238303022206103408201527f6c65747465722d73706163696e673d2230656d223e3c747370616e20783d22326103608201527f37372220793d223231302e343535223e554e4c4f434b205052494d453c2f74736103808201527f70616e3e3c2f746578743e203c726563742077696474683d22353734222068656103a08201527f696768743d2235393822207472616e73666f726d3d227472616e736c617465286103c08201527f3233372032393229222066696c6c3d22776869746522202f3e203c74657874206103e08201527f66696c6c3d22233231313831342220786d6c3a73706163653d227072657365726104008201527f766522207374796c653d2277686974652d73706163653a207072652220666f6e6104208201527f742d73697a653d2235312220666f6e742d7765696768743d22626f6c6422206c6104408201527f65747465722d73706163696e673d2230656d223e3c747370616e20783d2232376104608201527f372220793d223338392e353435223e4d7920556e6c6f636b203c2f747370616e6104808201527f3e3c747370616e20783d223237372220793d223435312e353435223e5072696d6104a08201527f6520506173733c2f747370616e3e3c2f746578743e203c746578742066696c6c6104c08201527f3d22233231313831342220786d6c3a73706163653d22707265736572766522206104e08201527f7374796c653d2277686974652d73706163653a207072652220666f6e742d73696105008201527f7a653d2232342220666f6e742d7765696768743d2235303022206c65747465726105208201527f2d73706163696e673d2230656d223e3c747370616e20783d223237372220793d6105408201527f223534302e353435223e4d656d62657220416464726573733c2f747370616e3e6105608201527f3c2f746578743e203c746578742066696c6c3d22233231313831342220786d6c6105808201527f3a73706163653d22707265736572766522207374796c653d2277686974652d736105a08201527f706163653a207072652220666f6e742d73697a653d2231382220666f6e742d776105c08201527f65696768743d2235303022206c65747465722d73706163696e673d2230656d226105e08201527f3e3c747370616e20783d223237372220793d223438392e353435223e262331306106008201527f3b3c2f747370616e3e3c747370616e20783d223237372220793d223531312e356106208201527f3435223e262331303b3c2f747370616e3e3c2f746578743e000000000000000061064082015250565b6000611bf261065883610b7f565b9150611bfd82611424565b61065882019050919050565b7f3c746578742066696c6c3d22233231313831342220786d6c3a73706163653d2260008201527f707265736572766522207374796c653d2277686974652d73706163653a20707260208201527f652220666f6e742d73697a653d2232342220666f6e742d7765696768743d223560408201527f303022206c65747465722d73706163696e673d2230656d223e3c747370616e2060608201527f783d223237372220793d223632392e353435223e56616c6964205468726f756760808201527f683c2f747370616e3e3c2f746578743e3c746578742066696c6c3d222332313160a08201527f3831342220786d6c3a73706163653d22707265736572766522207374796c653d60c08201527f2277686974652d73706163653a207072652220666f6e742d73697a653d22313860e08201527f2220666f6e742d7765696768743d2235303022206c65747465722d73706163696101008201527f6e673d2230656d223e3c747370616e20783d223237372220793d223630302e356101208201527f3435223e262331303b3c2f747370616e3e3c2f746578743e000000000000000061014082015250565b6000611dbf61015883610b7f565b9150611dca82611c09565b61015882019050919050565b7f3c726563742077696474683d2235373422206865696768743d2238362220747260008201527f616e73666f726d3d227472616e736c617465283233372038393029222066696c60208201527f6c3d22776869746522202f3e3c2f673e3c2f673e3c706174682066696c6c2d7260408201527f756c653d226576656e6f64642220636c69702d72756c653d226576656e6f646460608201527f2220643d224d3535352e35313920304c343837203930483535332e3438314c3660808201527f32322030483535352e3531395a222066696c6c3d22776869746522202f3e3c7060a08201527f6174682066696c6c2d72756c653d226576656e6f64642220636c69702d72756c60c08201527f653d226576656e6f64642220643d224d34323420304c3439322e35313920393060e08201527f483535394c3439302e3438312030483432345a222066696c6c3d2277686974656101008201527f22202f3e3c646566733e3c66696c7465722069643d2266696c746572305f645f6101208201527f323031385f323630372220783d223230392220793d223236222077696474683d6101408201527f2236333022206865696768743d22393738222066696c746572556e6974733d226101608201527f7573657253706163654f6e5573652220636f6c6f722d696e746572706f6c61746101808201527f696f6e2d66696c746572733d2273524742223e3c6665466c6f6f6420666c6f6f6101a08201527f642d6f7061636974793d22302220726573756c743d224261636b67726f756e646101c08201527f496d61676546697822202f3e3c6665436f6c6f724d617472697820696e3d22536101e08201527f6f75726365416c7068612220747970653d226d6174726978222076616c7565736102008201527f3d223020302030203020302030203020302030203020302030203020302030206102208201527f30203020302031323720302220726573756c743d2268617264416c70686122206102408201527f2f3e3c66654d6f7270686f6c6f6779207261646975733d223422206f706572616102608201527f746f723d2264696c6174652220696e3d22536f75726365416c706861222072656102808201527f73756c743d22656666656374315f64726f70536861646f775f323031385f32366102a08201527f303722202f3e3c66654f6666736574202f3e3c6665476175737369616e426c756102c08201527f7220737464446576696174696f6e3d22313222202f3e3c6665436f6c6f724d616102e08201527f7472697820747970653d226d6174726978222076616c7565733d2230203020306103008201527f203020302e313239343132203020302030203020302e303934313137362030206103208201527f302030203020302e3037383433313420302030203020302e3135203022202f3e6103408201527f3c6665426c656e64206d6f64653d226e6f726d616c2220696e323d224261636b6103608201527f67726f756e64496d6167654669782220726573756c743d22656666656374315f6103808201527f64726f70536861646f775f323031385f3236303722202f3e3c6665426c656e646103a08201527f206d6f64653d226e6f726d616c2220696e3d22536f75726365477261706869636103c08201527f2220696e323d22656666656374315f64726f70536861646f775f323031385f326103e08201527f3630372220726573756c743d22736861706522202f3e3c2f66696c7465723e3c6104008201527f6c696e6561724772616469656e742069643d227061696e74305f6c696e6561726104208201527f5f323031385f32363037222078313d22323737222079313d223137312e3439316104408201527f222078323d223332382e363235222079323d2231342e343339312220677261646104608201527f69656e74556e6974733d227573657253706163654f6e557365223e3c73746f706104808201527f2073746f702d636f6c6f723d222336303344454222202f3e3c73746f70206f666104a08201527f667365743d2231222073746f702d636f6c6f723d222332374331443622202f3e6104c08201527f3c2f6c696e6561724772616469656e743e3c636c6970506174682069643d22636104e08201527f6c6970305f323031385f32363037223e3c7265637420783d223233372220793d6105008201527f223534222077696474683d2235373422206865696768743d22393232222072786105208201527f3d223234222066696c6c3d22776869746522202f3e3c2f636c6970506174683e6105408201527f3c2f646566733e3c2f7376673e0000000000000000000000000000000000000061056082015250565b600061249361056d83610b7f565b915061249e82611dd6565b61056d82019050919050565b60006124b582611343565b91506124c082611401565b91506124cb82611be4565b91506124d78285610c6e565b91506124e282611db1565b91506124ee8284610c6e565b91506124f982612485565b91508190509392505050565b60006125118284610c6e565b915081905092915050565b7f646174613a696d6167652f7376672b786d6c3b6261736536342c000000000000600082015250565b6000612552601a83610b7f565b915061255d8261251c565b601a82019050919050565b600061257382612545565b915061257f8284610c6e565b915081905092915050565b7f7b20226e616d6522203a2022556e6c6f636b205072696d65222c20226578746560008201527f726e616c5f75726c223a2268747470733a2f2f6170702e756e6c6f636b2d707260208201527f6f746f636f6c2e636f6d2f7072696d65222c226465736372697074696f6e223a60408201527f22556e6c6f636b205072696d65206f666665727320656e68616e63656420666560608201527f6174757265732c206d6f6e74686c792045544820726577617264732c20756e6c60808201527f696d69746564206576656e74732c20616e64206578636c75736976652070617260a08201527f746e657220646973636f756e747320666f72206d656d626572732e204272696e60c08201527f6720796f7572206f6e636861696e20657870657269656e63657320746f20746860e08201527f65206e657874206c6576656c20776974682061207072656d69756d206d656d626101008201527f657273686970207468617420776f726b73206163726f737320616c6c207468656101208201527f20617070732066726f6d20556e6c6f636b204c616273222c22696d616765223a6101408201527f220000000000000000000000000000000000000000000000000000000000000061016082015250565b600061276761016183610b7f565b91506127728261258a565b61016182019050919050565b7f227d000000000000000000000000000000000000000000000000000000000000600082015250565b60006127b4600283610b7f565b91506127bf8261277e565b600282019050919050565b60006127d582612759565b91506127e18284610c6e565b91506127ec826127a7565b915081905092915050565b7f646174613a6170706c69636174696f6e2f6a736f6e3b6261736536342c000000600082015250565b600061282d601d83610b7f565b9150612838826127f7565b601d82019050919050565b600061284e82612820565b915061285a8284610c6e565b915081905092915050565b7f4e487b7100000000000000000000000000000000000000000000000000000000600052601260045260246000fd5b7f4e487b7100000000000000000000000000000000000000000000000000000000600052601160045260246000fd5b60006128ce82610a1c565b91506128d983610a1c565b9250826128e9576128e8612865565b5b828204905092915050565b7f4e487b7100000000000000000000000000000000000000000000000000000000600052604160045260246000fd5b600061292e82610a1c565b915061293983610a1c565b925082820190508082111561295157612950612894565b5b92915050565b600061296282610a1c565b915061296d83610a1c565b925082820261297b81610a1c565b9150828204841483151761299257612991612894565b5b5092915050565b60006129a482610a1c565b9150600082036129b7576129b6612894565b5b600182039050919050565b6129cb81610a1c565b82525050565b60006040820190506129e660008301856129c2565b6129f360208301846129c2565b9392505050565b6000819050919050565b6000612a0f826129fa565b9150612a1a836129fa565b925082820190508281121560008312168382126000841215161715612a4257612a41612894565b5b92915050565b6000612a53826129fa565b9150612a5e836129fa565b9250828202612a6c816129fa565b91507f80000000000000000000000000000000000000000000000000000000000000008414600084121615612aa457612aa3612894565b5b8282058414831517612ab957612ab8612894565b5b5092915050565b6000612acb826129fa565b9150612ad6836129fa565b925082612ae657612ae5612865565b5b600160000383147f800000000000000000000000000000000000000000000000000000000000000083141615612b1f57612b1e612894565b5b828205905092915050565b6000612b35826129fa565b9150612b40836129fa565b9250828203905081811260008412168282136000851215161715612b6757612b66612894565b5b9291505056fe4142434445464748494a4b4c4d4e4f505152535455565758595a6162636465666768696a6b6c6d6e6f707172737475767778797a303132333435363738392b2fa2646970667358221220d3c943750c9941d647f1813e6546a6b90dbff0ec14bee82f9073dba1e3675d5964736f6c634300081b0033",
  "linkReferences": {},
  "deployedLinkReferences": {}
}