{
  "_format": "hh-sol-artifact-1",
  "contractName": "UnlockPrimeHookWithRecipientAndFallback",
  "sourceName": "contracts/UnlockPrimeHookWithRecipientAndFallback.sol",
  "abi": [
    {
      "inputs": [
        {
          "internalType": "address",
          "name": "_unlockPrime",
          "type": "address"
        },
        {
          "internalType": "address",
          "name": "_oracle",
          "type": "address"
        },
        {
          "internalType": "address",
          "name": "_weth",
          "type": "address"
        }
      ],
      "stateMutability": "nonpayable",
      "type": "constructor"
    },
    {
      "anonymous": false,
      "inputs": [
        {
          "indexed": false,
          "internalType": "address",
          "name": "",
          "type": "address"
        }
      ],
      "name": "OracleSet",
      "type": "event"
    },
    {
      "anonymous": false,
      "inputs": [
        {
          "indexed": false,
          "internalType": "address",
          "name": "",
          "type": "address"
        },
        {
          "indexed": false,
          "internalType": "uint256",
          "name": "",
          "type": "uint256"
        }
      ],
      "name": "RefundPaid",
      "type": "event"
    },
    {
      "anonymous": false,
      "inputs": [
        {
          "indexed": false,
          "internalType": "address",
          "name": "",
          "type": "address"
        },
        {
          "indexed": false,
          "internalType": "uint256",
          "name": "",
          "type": "uint256"
        },
        {
          "indexed": false,
          "internalType": "uint256",
          "name": "",
          "type": "uint256"
        }
      ],
      "name": "RefundSet",
      "type": "event"
    },
    {
      "anonymous": false,
      "inputs": [
        {
          "indexed": false,
          "internalType": "address",
          "name": "",
          "type": "address"
        }
      ],
      "name": "UnlockPrimeSet",
      "type": "event"
    },
    {
      "anonymous": false,
      "inputs": [
        {
          "indexed": false,
          "internalType": "address",
          "name": "",
          "type": "address"
        }
      ],
      "name": "WethSet",
      "type": "event"
    },
    {
      "inputs": [],
      "name": "claimRefund",
      "outputs": [],
      "stateMutability": "nonpayable",
      "type": "function"
    },
    {
      "inputs": [
        {
          "internalType": "address",
          "name": "_unlockPrime",
          "type": "address"
        },
        {
          "internalType": "address",
          "name": "_oracle",
          "type": "address"
        },
        {
          "internalType": "address",
          "name": "_weth",
          "type": "address"
        }
      ],
      "name": "initialize",
      "outputs": [],
      "stateMutability": "nonpayable",
      "type": "function"
    },
    {
      "inputs": [
        {
          "internalType": "address",
          "name": "",
          "type": "address"
        },
        {
          "internalType": "address",
          "name": "",
          "type": "address"
        },
        {
          "internalType": "address",
          "name": "",
          "type": "address"
        },
        {
          "internalType": "bytes",
          "name": "",
          "type": "bytes"
        }
      ],
      "name": "keyPurchasePrice",
      "outputs": [
        {
          "internalType": "uint256",
          "name": "minKeyPrice",
          "type": "uint256"
        }
      ],
      "stateMutability": "view",
      "type": "function"
    },
    {
      "inputs": [
        {
          "internalType": "uint256",
          "name": "tokenId",
          "type": "uint256"
        },
        {
          "internalType": "address",
          "name": "",
          "type": "address"
        },
        {
          "internalType": "uint256",
          "name": "",
          "type": "uint256"
        },
        {
          "internalType": "uint256",
          "name": "",
          "type": "uint256"
        }
      ],
      "name": "onKeyExtend",
      "outputs": [],
      "stateMutability": "nonpayable",
      "type": "function"
    },
    {
      "inputs": [
        {
          "internalType": "uint256",
          "name": "",
          "type": "uint256"
        },
        {
          "internalType": "address",
          "name": "",
          "type": "address"
        },
        {
          "internalType": "address",
          "name": "recipient",
          "type": "address"
        },
        {
          "internalType": "address",
          "name": "",
          "type": "address"
        },
        {
          "internalType": "bytes",
          "name": "",
          "type": "bytes"
        },
        {
          "internalType": "uint256",
          "name": "",
          "type": "uint256"
        },
        {
          "internalType": "uint256",
          "name": "",
          "type": "uint256"
        }
      ],
      "name": "onKeyPurchase",
      "outputs": [],
      "stateMutability": "nonpayable",
      "type": "function"
    },
    {
      "inputs": [],
      "name": "oracle",
      "outputs": [
        {
          "internalType": "address",
          "name": "",
          "type": "address"
        }
      ],
      "stateMutability": "view",
      "type": "function"
    },
    {
      "inputs": [
        {
          "internalType": "address",
          "name": "",
          "type": "address"
        },
        {
          "internalType": "uint256",
          "name": "",
          "type": "uint256"
        }
      ],
      "name": "refunds",
      "outputs": [
        {
          "internalType": "uint256",
          "name": "",
          "type": "uint256"
        }
      ],
      "stateMutability": "view",
      "type": "function"
    },
    {
      "inputs": [
        {
          "internalType": "address",
          "name": "_oracle",
          "type": "address"
        }
      ],
      "name": "setOracle",
      "outputs": [],
      "stateMutability": "nonpayable",
      "type": "function"
    },
    {
      "inputs": [
        {
          "internalType": "address",
          "name": "_unlockPrime",
          "type": "address"
        }
      ],
      "name": "setUnlockPrime",
      "outputs": [],
      "stateMutability": "nonpayable",
      "type": "function"
    },
    {
      "inputs": [
        {
          "internalType": "address",
          "name": "_weth",
          "type": "address"
        }
      ],
      "name": "setWeth",
      "outputs": [],
      "stateMutability": "nonpayable",
      "type": "function"
    },
    {
      "inputs": [],
      "name": "unlockPrime",
      "outputs": [
        {
          "internalType": "address",
          "name": "",
          "type": "address"
        }
      ],
      "stateMutability": "view",
      "type": "function"
    },
    {
      "inputs": [],
      "name": "weth",
      "outputs": [
        {
          "internalType": "address",
          "name": "",
          "type": "address"
        }
      ],
      "stateMutability": "view",
      "type": "function"
    },
    {
      "stateMutability": "payable",
      "type": "receive"
    }
  ],
  "bytecode": "0x608060405234801561001057600080fd5b50604051611f0f380380611f0f833981810160405281019061003291906102a9565b61004383838361004b60201b60201c565b5050506103a3565b600073ffffffffffffffffffffffffffffffffffffffff1660008054906101000a900473ffffffffffffffffffffffffffffffffffffffff1673ffffffffffffffffffffffffffffffffffffffff16146100da576040517f08c379a00000000000000000000000000000000000000000000000000000000081526004016100d190610359565b60405180910390fd5b826000806101000a81548173ffffffffffffffffffffffffffffffffffffffff021916908373ffffffffffffffffffffffffffffffffffffffff1602179055507f867b5ac058251d339d708e1228ac92d445562b0685454293fed8b862f87167c5836040516101499190610388565b60405180910390a181600160006101000a81548173ffffffffffffffffffffffffffffffffffffffff021916908373ffffffffffffffffffffffffffffffffffffffff1602179055507f3f32684a32a11dabdbb8c0177de80aa3ae36a004d75210335b49e544e48cd0aa826040516101c19190610388565b60405180910390a180600260006101000a81548173ffffffffffffffffffffffffffffffffffffffff021916908373ffffffffffffffffffffffffffffffffffffffff1602179055507f13a533084dcbb1cfe0dbea708ea977223c27c44d94f2fa3867a167c9cd340bf9816040516102399190610388565b60405180910390a1505050565b600080fd5b600073ffffffffffffffffffffffffffffffffffffffff82169050919050565b60006102768261024b565b9050919050565b6102868161026b565b811461029157600080fd5b50565b6000815190506102a38161027d565b92915050565b6000806000606084860312156102c2576102c1610246565b5b60006102d086828701610294565b93505060206102e186828701610294565b92505060406102f286828701610294565b9150509250925092565b600082825260208201905092915050565b7f416c726561647920696e697469616c697a656400000000000000000000000000600082015250565b60006103436013836102fc565b915061034e8261030d565b602082019050919050565b6000602082019050818103600083015261037281610336565b9050919050565b6103828161026b565b82525050565b600060208201905061039d6000830184610379565b92915050565b611b5d806103b26000396000f3fe6080604052600436106100ab5760003560e01c80637dc0d1d0116100645780637dc0d1d0146101d75780638295d3be14610202578063b5545a3c1461022b578063b8d1452f14610242578063c0c53b8b1461026b578063db7d7f8d14610294576100b2565b8063016b9680146100b7578063221c1fd1146100e05780633436247b1461011d5780633fc8cef31461015a5780635e895f29146101855780637adbf973146101ae576100b2565b366100b257005b600080fd5b3480156100c357600080fd5b506100de60048036038101906100d99190611388565b6102bf565b005b3480156100ec57600080fd5b5061010760048036038101906101029190611454565b610410565b60405161011491906114eb565b60405180910390f35b34801561012957600080fd5b50610144600480360381019061013f9190611506565b61048c565b60405161015191906114eb565b60405180910390f35b34801561016657600080fd5b5061016f6104b4565b60405161017c9190611555565b60405180910390f35b34801561019157600080fd5b506101ac60048036038101906101a79190611570565b6104da565b005b3480156101ba57600080fd5b506101d560048036038101906101d09190611632565b6105b0565b005b3480156101e357600080fd5b506101ec610704565b6040516101f99190611555565b60405180910390f35b34801561020e57600080fd5b5061022960048036038101906102249190611632565b61072a565b005b34801561023757600080fd5b5061024061087d565b005b34801561024e57600080fd5b5061026960048036038101906102649190611632565b610acf565b005b34801561027757600080fd5b50610292600480360381019061028d919061165f565b610c23565b005b3480156102a057600080fd5b506102a9610e1e565b6040516102b69190611555565b60405180910390f35b600033905060008054906101000a900473ffffffffffffffffffffffffffffffffffffffff1673ffffffffffffffffffffffffffffffffffffffff163373ffffffffffffffffffffffffffffffffffffffff1603610409576104088173ffffffffffffffffffffffffffffffffffffffff16636352211e876040518263ffffffff1660e01b815260040161035391906114eb565b602060405180830381865afa158015610370573d6000803e3d6000fd5b505050506040513d601f19601f8201168201806040525081019061039491906116c7565b8273ffffffffffffffffffffffffffffffffffffffff166310e569736040518163ffffffff1660e01b8152600401602060405180830381865afa1580156103df573d6000803e3d6000fd5b505050506040513d601f19601f820116820180604052508101906104039190611709565b610e42565b5b5050505050565b60003373ffffffffffffffffffffffffffffffffffffffff166310e569736040518163ffffffff1660e01b8152600401602060405180830381865afa15801561045d573d6000803e3d6000fd5b505050506040513d601f19601f820116820180604052508101906104819190611709565b905095945050505050565b600360205281600052604060002081600281106104a857600080fd5b01600091509150505481565b600260009054906101000a900473ffffffffffffffffffffffffffffffffffffffff1681565b60008054906101000a900473ffffffffffffffffffffffffffffffffffffffff1673ffffffffffffffffffffffffffffffffffffffff163373ffffffffffffffffffffffffffffffffffffffff16036105a6576105a5863373ffffffffffffffffffffffffffffffffffffffff166310e569736040518163ffffffff1660e01b8152600401602060405180830381865afa15801561057c573d6000803e3d6000fd5b505050506040513d601f19601f820116820180604052508101906105a09190611709565b610e42565b5b5050505050505050565b60008054906101000a900473ffffffffffffffffffffffffffffffffffffffff1673ffffffffffffffffffffffffffffffffffffffff1663aae4b8f7336040518263ffffffff1660e01b81526004016106099190611555565b602060405180830381865afa158015610626573d6000803e3d6000fd5b505050506040513d601f19601f8201168201806040525081019061064a919061176e565b610689576040517f08c379a0000000000000000000000000000000000000000000000000000000008152600401610680906117f8565b60405180910390fd5b80600160006101000a81548173ffffffffffffffffffffffffffffffffffffffff021916908373ffffffffffffffffffffffffffffffffffffffff1602179055507f3f32684a32a11dabdbb8c0177de80aa3ae36a004d75210335b49e544e48cd0aa816040516106f99190611555565b60405180910390a150565b600160009054906101000a900473ffffffffffffffffffffffffffffffffffffffff1681565b60008054906101000a900473ffffffffffffffffffffffffffffffffffffffff1673ffffffffffffffffffffffffffffffffffffffff1663aae4b8f7336040518263ffffffff1660e01b81526004016107839190611555565b602060405180830381865afa1580156107a0573d6000803e3d6000fd5b505050506040513d601f19601f820116820180604052508101906107c4919061176e565b610803576040517f08c379a00000000000000000000000000000000000000000000000000000000081526004016107fa906117f8565b60405180910390fd5b806000806101000a81548173ffffffffffffffffffffffffffffffffffffffff021916908373ffffffffffffffffffffffffffffffffffffffff1602179055507f867b5ac058251d339d708e1228ac92d445562b0685454293fed8b862f87167c5816040516108729190611555565b60405180910390a150565b6000600360003373ffffffffffffffffffffffffffffffffffffffff1673ffffffffffffffffffffffffffffffffffffffff1681526020019081526020016000206002806020026040519081016040528092919082600280156108f5576020028201915b8154815260200190600101908083116108e1575b5050505050905060008160006002811061091257610911611818565b5b602002015111610957576040517f08c379a000000000000000000000000000000000000000000000000000000000815260040161094e90611893565b60405180910390fd5b428160016002811061096c5761096b611818565b5b6020020151106109b1576040517f08c379a00000000000000000000000000000000000000000000000000000000081526004016109a8906118ff565b60405180910390fd5b6040518060400160405280600060ff168152602001600060ff16815250600360003373ffffffffffffffffffffffffffffffffffffffff1673ffffffffffffffffffffffffffffffffffffffff168152602001908152602001600020906002610a1b929190611248565b503373ffffffffffffffffffffffffffffffffffffffff166108fc82600060028110610a4a57610a49611818565b5b60200201519081150290604051600060405180830381858888f19350505050158015610a7a573d6000803e3d6000fd5b507f1fe70b87853839959e74387a76c2713282f77a4a0656bf8689058a0eea2891e03382600060028110610ab157610ab0611818565b5b6020020151604051610ac492919061191f565b60405180910390a150565b60008054906101000a900473ffffffffffffffffffffffffffffffffffffffff1673ffffffffffffffffffffffffffffffffffffffff1663aae4b8f7336040518263ffffffff1660e01b8152600401610b289190611555565b602060405180830381865afa158015610b45573d6000803e3d6000fd5b505050506040513d601f19601f82011682018060405250810190610b69919061176e565b610ba8576040517f08c379a0000000000000000000000000000000000000000000000000000000008152600401610b9f906117f8565b60405180910390fd5b80600260006101000a81548173ffffffffffffffffffffffffffffffffffffffff021916908373ffffffffffffffffffffffffffffffffffffffff1602179055507f13a533084dcbb1cfe0dbea708ea977223c27c44d94f2fa3867a167c9cd340bf981604051610c189190611555565b60405180910390a150565b600073ffffffffffffffffffffffffffffffffffffffff1660008054906101000a900473ffffffffffffffffffffffffffffffffffffffff1673ffffffffffffffffffffffffffffffffffffffff1614610cb2576040517f08c379a0000000000000000000000000000000000000000000000000000000008152600401610ca990611994565b60405180910390fd5b826000806101000a81548173ffffffffffffffffffffffffffffffffffffffff021916908373ffffffffffffffffffffffffffffffffffffffff1602179055507f867b5ac058251d339d708e1228ac92d445562b0685454293fed8b862f87167c583604051610d219190611555565b60405180910390a181600160006101000a81548173ffffffffffffffffffffffffffffffffffffffff021916908373ffffffffffffffffffffffffffffffffffffffff1602179055507f3f32684a32a11dabdbb8c0177de80aa3ae36a004d75210335b49e544e48cd0aa82604051610d999190611555565b60405180910390a180600260006101000a81548173ffffffffffffffffffffffffffffffffffffffff021916908373ffffffffffffffffffffffffffffffffffffffff1602179055507f13a533084dcbb1cfe0dbea708ea977223c27c44d94f2fa3867a167c9cd340bf981604051610e119190611555565b60405180910390a1505050565b60008054906101000a900473ffffffffffffffffffffffffffffffffffffffff1681565b60008060009054906101000a900473ffffffffffffffffffffffffffffffffffffffff1673ffffffffffffffffffffffffffffffffffffffff16639d76ea586040518163ffffffff1660e01b8152600401602060405180830381865afa158015610eb0573d6000803e3d6000fd5b505050506040513d601f19601f82011682018060405250810190610ed491906116c7565b90506000600160009054906101000a900473ffffffffffffffffffffffffffffffffffffffff1673ffffffffffffffffffffffffffffffffffffffff1663c1e553e78385600260009054906101000a900473ffffffffffffffffffffffffffffffffffffffff166040518463ffffffff1660e01b8152600401610f59939291906119b4565b6020604051808303816000875af1158015610f78573d6000803e3d6000fd5b505050506040513d601f19601f82011682018060405250810190610f9c9190611709565b90506000600360008673ffffffffffffffffffffffffffffffffffffffff1673ffffffffffffffffffffffffffffffffffffffff168152602001908152602001600020600060028110610ff257610ff1611818565b5b015490506000600360008773ffffffffffffffffffffffffffffffffffffffff1673ffffffffffffffffffffffffffffffffffffffff16815260200190815260200160002060016002811061104a57611049611818565b5b015490506000600a600b8561105f9190611a1a565b6110699190611a8b565b90506000621275004261107c9190611abc565b9050428310156110f9576040518060400160405280838661109d9190611abc565b815260200182815250600360008a73ffffffffffffffffffffffffffffffffffffffff1673ffffffffffffffffffffffffffffffffffffffff1681526020019081526020016000209060026110f392919061128d565b5061115d565b604051806040016040528083815260200182815250600360008a73ffffffffffffffffffffffffffffffffffffffff1673ffffffffffffffffffffffffffffffffffffffff16815260200190815260200160002090600261115b92919061128d565b505b7fa1d590fd2e594a4a50983c420b530fcf5ffe210e5203b51d6c022cb0d9ac4f8088600360008b73ffffffffffffffffffffffffffffffffffffffff1673ffffffffffffffffffffffffffffffffffffffff1681526020019081526020016000206000600281106111d1576111d0611818565b5b0154600360008c73ffffffffffffffffffffffffffffffffffffffff1673ffffffffffffffffffffffffffffffffffffffff16815260200190815260200160002060016002811061122557611224611818565b5b015460405161123693929190611af0565b60405180910390a15050505050505050565b826002810192821561127c579160200282015b8281111561127b578251829060ff1690559160200191906001019061125b565b5b50905061128991906112cd565b5090565b82600281019282156112bc579160200282015b828111156112bb5782518255916020019190600101906112a0565b5b5090506112c991906112cd565b5090565b5b808211156112e65760008160009055506001016112ce565b5090565b600080fd5b600080fd5b6000819050919050565b611307816112f4565b811461131257600080fd5b50565b600081359050611324816112fe565b92915050565b600073ffffffffffffffffffffffffffffffffffffffff82169050919050565b60006113558261132a565b9050919050565b6113658161134a565b811461137057600080fd5b50565b6000813590506113828161135c565b92915050565b600080600080608085870312156113a2576113a16112ea565b5b60006113b087828801611315565b94505060206113c187828801611373565b93505060406113d287828801611315565b92505060606113e387828801611315565b91505092959194509250565b600080fd5b600080fd5b600080fd5b60008083601f840112611414576114136113ef565b5b8235905067ffffffffffffffff811115611431576114306113f4565b5b60208301915083600182028301111561144d5761144c6113f9565b5b9250929050565b6000806000806000608086880312156114705761146f6112ea565b5b600061147e88828901611373565b955050602061148f88828901611373565b94505060406114a088828901611373565b935050606086013567ffffffffffffffff8111156114c1576114c06112ef565b5b6114cd888289016113fe565b92509250509295509295909350565b6114e5816112f4565b82525050565b600060208201905061150060008301846114dc565b92915050565b6000806040838503121561151d5761151c6112ea565b5b600061152b85828601611373565b925050602061153c85828601611315565b9150509250929050565b61154f8161134a565b82525050565b600060208201905061156a6000830184611546565b92915050565b60008060008060008060008060e0898b0312156115905761158f6112ea565b5b600061159e8b828c01611315565b98505060206115af8b828c01611373565b97505060406115c08b828c01611373565b96505060606115d18b828c01611373565b955050608089013567ffffffffffffffff8111156115f2576115f16112ef565b5b6115fe8b828c016113fe565b945094505060a06116118b828c01611315565b92505060c06116228b828c01611315565b9150509295985092959890939650565b600060208284031215611648576116476112ea565b5b600061165684828501611373565b91505092915050565b600080600060608486031215611678576116776112ea565b5b600061168686828701611373565b935050602061169786828701611373565b92505060406116a886828701611373565b9150509250925092565b6000815190506116c18161135c565b92915050565b6000602082840312156116dd576116dc6112ea565b5b60006116eb848285016116b2565b91505092915050565b600081519050611703816112fe565b92915050565b60006020828403121561171f5761171e6112ea565b5b600061172d848285016116f4565b91505092915050565b60008115159050919050565b61174b81611736565b811461175657600080fd5b50565b60008151905061176881611742565b92915050565b600060208284031215611784576117836112ea565b5b600061179284828501611759565b91505092915050565b600082825260208201905092915050565b7f43616c6c6572206973206e6f742061206c6f636b206d616e6167657200000000600082015250565b60006117e2601c8361179b565b91506117ed826117ac565b602082019050919050565b60006020820190508181036000830152611811816117d5565b9050919050565b7f4e487b7100000000000000000000000000000000000000000000000000000000600052603260045260246000fd5b7f4e6f20726566756e6420617661696c61626c6500000000000000000000000000600082015250565b600061187d60138361179b565b915061188882611847565b602082019050919050565b600060208201905081810360008301526118ac81611870565b9050919050565b7f526566756e64206e6f7420617661696c61626c65207965740000000000000000600082015250565b60006118e960188361179b565b91506118f4826118b3565b602082019050919050565b60006020820190508181036000830152611918816118dc565b9050919050565b60006040820190506119346000830185611546565b61194160208301846114dc565b9392505050565b7f416c726561647920696e697469616c697a656400000000000000000000000000600082015250565b600061197e60138361179b565b915061198982611948565b602082019050919050565b600060208201905081810360008301526119ad81611971565b9050919050565b60006060820190506119c96000830186611546565b6119d660208301856114dc565b6119e36040830184611546565b949350505050565b7f4e487b7100000000000000000000000000000000000000000000000000000000600052601160045260246000fd5b6000611a25826112f4565b9150611a30836112f4565b9250828202611a3e816112f4565b91508282048414831517611a5557611a546119eb565b5b5092915050565b7f4e487b7100000000000000000000000000000000000000000000000000000000600052601260045260246000fd5b6000611a96826112f4565b9150611aa1836112f4565b925082611ab157611ab0611a5c565b5b828204905092915050565b6000611ac7826112f4565b9150611ad2836112f4565b9250828201905080821115611aea57611ae96119eb565b5b92915050565b6000606082019050611b056000830186611546565b611b1260208301856114dc565b611b1f60408301846114dc565b94935050505056fea264697066735822122008e09c1d2f6886a7c207324f1ad1ebde84b56354e465f1407f57b1181e5ba6a764736f6c634300081b0033",
  "linkReferences": {},
  "deployedLinkReferences": {}
}