{
  "contracts/UnlockPrimeTokenURIHook.sol": {
    "UnlockPrimeTokenURIHook": {
      "abi": [
        {
          "inputs": [
            {
              "internalType": "uint256",
              "name": "value",
              "type": "uint256"
            },
            {
              "internalType": "uint256",
              "name": "length",
              "type": "uint256"
            }
          ],
          "name": "StringsInsufficientHexLength",
          "type": "error"
        },
        {
          "inputs": [
            {
              "internalType": "address",
              "name": "lockAddress",
              "type": "address"
            },
            {
              "internalType": "address",
              "name": "operator",
              "type": "address"
            },
            {
              "internalType": "address",
              "name": "owner",
              "type": "address"
            },
            {
              "internalType": "uint256",
              "name": "keyId",
              "type": "uint256"
            },
            {
              "internalType": "uint256",
              "name": "expirationTimestamp",
              "type": "uint256"
            }
          ],
          "name": "tokenURI",
          "outputs": [
            {
              "internalType": "string",
              "name": "",
              "type": "string"
            }
          ],
          "stateMutability": "view",
          "type": "function"
        }
      ],
      "evm": {
        "bytecode": {
          "linkReferences": {},
          "object": "6080604052604051806101a001604052806040518060200160405280600081525081526020016040518060400160405280600781526020017f4a616e756172790000000000000000000000000000000000000000000000000081525081526020016040518060400160405280600881526020017f466562727561727900000000000000000000000000000000000000000000000081525081526020016040518060400160405280600581526020017f4d6172636800000000000000000000000000000000000000000000000000000081525081526020016040518060400160405280600581526020017f417072696c00000000000000000000000000000000000000000000000000000081525081526020016040518060400160405280600381526020017f4d6179000000000000000000000000000000000000000000000000000000000081525081526020016040518060400160405280600481526020017f4a756e650000000000000000000000000000000000000000000000000000000081525081526020016040518060400160405280600481526020017f4a756c790000000000000000000000000000000000000000000000000000000081525081526020016040518060400160405280600681526020017f417567757374000000000000000000000000000000000000000000000000000081525081526020016040518060400160405280600981526020017f53657074656d626572000000000000000000000000000000000000000000000081525081526020016040518060400160405280600781526020017f4f63746f6265720000000000000000000000000000000000000000000000000081525081526020016040518060400160405280600881526020017f4e6f76656d62657200000000000000000000000000000000000000000000000081525081526020016040518060400160405280600881526020017f446563656d626572000000000000000000000000000000000000000000000000815250815250600090600d6102f792919061030a565b5034801561030457600080fd5b50610706565b828054828255906000526020600020908101928215610352579160200282015b828111156103515782518290816103419190610634565b509160200191906001019061032a565b5b50905061035f9190610363565b5090565b5b80821115610383576000818161037a9190610387565b50600101610364565b5090565b5080546103939061044d565b6000825580601f106103a557506103c4565b601f0160209004906000526020600020908101906103c391906103c7565b5b50565b5b808211156103e05760008160009055506001016103c8565b5090565b600081519050919050565b7f4e487b7100000000000000000000000000000000000000000000000000000000600052604160045260246000fd5b7f4e487b7100000000000000000000000000000000000000000000000000000000600052602260045260246000fd5b6000600282049050600182168061046557607f821691505b6020821081036104785761047761041e565b5b50919050565b60008190508160005260206000209050919050565b60006020601f8301049050919050565b600082821b905092915050565b6000600883026104e07fffffffffffffffffffffffffffffffffffffffffffffffffffffffffffffffff826104a3565b6104ea86836104a3565b95508019841693508086168417925050509392505050565b6000819050919050565b6000819050919050565b600061053161052c61052784610502565b61050c565b610502565b9050919050565b6000819050919050565b61054b83610516565b61055f61055782610538565b8484546104b0565b825550505050565b600090565b610574610567565b61057f818484610542565b505050565b5b818110156105a35761059860008261056c565b600181019050610585565b5050565b601f8211156105e8576105b98161047e565b6105c284610493565b810160208510156105d1578190505b6105e56105dd85610493565b830182610584565b50505b505050565b600082821c905092915050565b600061060b600019846008026105ed565b1980831691505092915050565b600061062483836105fa565b9150826002028217905092915050565b61063d826103e4565b67ffffffffffffffff811115610656576106556103ef565b5b610660825461044d565b61066b8282856105a7565b600060209050601f83116001811461069e576000841561068c578287015190505b6106968582610618565b8655506106fe565b601f1984166106ac8661047e565b60005b828110156106d4578489015182556001820191506020850194506020810190506106af565b868310156106f157848901516106ed601f8916826105fa565b8355505b6001600288020188555050505b505050505050565b612be3806107156000396000f3fe608060405234801561001057600080fd5b506004361061002b5760003560e01c8063988b93ad14610030575b600080fd5b61004a60048036038101906100459190610a52565b610060565b6040516100579190610b5d565b60405180910390f35b6060600061006d856101e5565b60405160200161007d9190610ceb565b6040516020818303038152906040529050600080600061009c86610212565b92509250925060008083815481106100b7576100b6610d18565b5b906000526020600020016100ca83610241565b6100d386610241565b6040516020016100e59392919061124b565b60405160208183030381529060405290506000858260405160200161010b9291906124aa565b60405160208183030381529060405290506000610146826040516020016101329190612505565b60405160208183030381529060405261030f565b6040516020016101569190612568565b604051602081830303815290604052905060008160405160200161017a91906127ca565b60405160208183030381529060405290506101b38160405160200161019f9190612505565b60405160208183030381529060405261030f565b6040516020016101c39190612843565b6040516020818303038152906040529850505050505050505095945050505050565b606061020b8273ffffffffffffffffffffffffffffffffffffffff16601460ff16610481565b9050919050565b600080600061022e620151808561022991906128c3565b6106c7565b8093508194508295505050509193909250565b60606000600161025084610866565b01905060008167ffffffffffffffff81111561026f5761026e6128f4565b5b6040519080825280601f01601f1916602001820160405280156102a15781602001600182028036833780820191505090505b509050600082602001820190505b600115610304578080600190039150507f3031323334353637383961626364656600000000000000000000000000000000600a86061a8153600a85816102f8576102f7612865565b5b049450600085036102af575b819350505050919050565b606060008251036103315760405180602001604052806000815250905061047c565b6000604051806060016040528060408152602001612b6e60409139905060006003600285516103609190612923565b61036a91906128c3565b60046103769190612957565b67ffffffffffffffff81111561038f5761038e6128f4565b5b6040519080825280601f01601f1916602001820160405280156103c15781602001600182028036833780820191505090505b50905060018201602082018586518701602081018051600082525b82841015610437576003840193508351603f8160121c168701518653600186019550603f81600c1c168701518653600186019550603f8160061c168701518653600186019550603f81168701518653600186019550506103dc565b80825260038a51066001811461045457600281146104675761046f565b603d6001870353603d600287035361046f565b603d60018703535b5050505050505080925050505b919050565b60606000839050600060028460026104999190612957565b6104a39190612923565b67ffffffffffffffff8111156104bc576104bb6128f4565b5b6040519080825280601f01601f1916602001820160405280156104ee5781602001600182028036833780820191505090505b5090507f30000000000000000000000000000000000000000000000000000000000000008160008151811061052657610525610d18565b5b60200101907effffffffffffffffffffffffffffffffffffffffffffffffffffffffffffff1916908160001a9053507f78000000000000000000000000000000000000000000000000000000000000008160018151811061058a57610589610d18565b5b60200101907effffffffffffffffffffffffffffffffffffffffffffffffffffffffffffff1916908160001a905350600060018560026105ca9190612957565b6105d49190612923565b90505b6001811115610674577f3031323334353637383961626364656600000000000000000000000000000000600f84166010811061061657610615610d18565b5b1a60f81b82828151811061062d5761062c610d18565b5b60200101907effffffffffffffffffffffffffffffffffffffffffffffffffffffffffffff1916908160001a905350600483901c92508061066d90612999565b90506105d7565b50600082146106bc5784846040517fe22e27eb0000000000000000000000000000000000000000000000000000000081526004016106b39291906129d1565b60405180910390fd5b809250505092915050565b600080600080849050600062253d8c62010bd9836106e59190612a04565b6106ef9190612a04565b9050600062023ab18260046107049190612a48565b61070e9190612ac0565b9050600460038262023ab16107239190612a48565b61072d9190612a04565b6107379190612ac0565b826107429190612b2a565b9150600062164b096001846107579190612a04565b610fa06107649190612a48565b61076e9190612ac0565b9050601f6004826105b56107829190612a48565b61078c9190612ac0565b846107979190612b2a565b6107a19190612a04565b9250600061098f8460506107b59190612a48565b6107bf9190612ac0565b9050600060508261098f6107d39190612a48565b6107dd9190612ac0565b856107e89190612b2a565b9050600b826107f79190612ac0565b945084600c6108069190612a48565b6002836108139190612a04565b61081d9190612b2a565b9150848360318661082e9190612b2a565b606461083a9190612a48565b6108449190612a04565b61084e9190612a04565b92508298508197508096505050505050509193909250565b600080600090507a184f03e93ff9f4daa797ed6e38ed64bf6a1f01000000000000000083106108c4577a184f03e93ff9f4daa797ed6e38ed64bf6a1f01000000000000000083816108ba576108b9612865565b5b0492506040810190505b6d04ee2d6d415b85acef81000000008310610901576d04ee2d6d415b85acef810000000083816108f7576108f6612865565b5b0492506020810190505b662386f26fc10000831061093057662386f26fc10000838161092657610925612865565b5b0492506010810190505b6305f5e1008310610959576305f5e100838161094f5761094e612865565b5b0492506008810190505b612710831061097e57612710838161097457610973612865565b5b0492506004810190505b606483106109a1576064838161099757610996612865565b5b0492506002810190505b600a83106109b0576001810190505b80915050919050565b600080fd5b600073ffffffffffffffffffffffffffffffffffffffff82169050919050565b60006109e9826109be565b9050919050565b6109f9816109de565b8114610a0457600080fd5b50565b600081359050610a16816109f0565b92915050565b6000819050919050565b610a2f81610a1c565b8114610a3a57600080fd5b50565b600081359050610a4c81610a26565b92915050565b600080600080600060a08688031215610a6e57610a6d6109b9565b5b6000610a7c88828901610a07565b9550506020610a8d88828901610a07565b9450506040610a9e88828901610a07565b9350506060610aaf88828901610a3d565b9250506080610ac088828901610a3d565b9150509295509295909350565b600081519050919050565b600082825260208201905092915050565b60005b83811015610b07578082015181840152602081019050610aec565b60008484015250505050565b6000601f19601f8301169050919050565b6000610b2f82610acd565b610b398185610ad8565b9350610b49818560208601610ae9565b610b5281610b13565b840191505092915050565b60006020820190508181036000830152610b778184610b24565b905092915050565b600081905092915050565b7f3c746578742066696c6c3d22233630334445422220786d6c3a73706163653d2260008201527f707265736572766522207374796c653d2277686974652d73706163653a20707260208201527f652220666f6e742d73697a653d2232302220666f6e742d7765696768743d223660408201527f303022206c65747465722d73706163696e673d2230656d223e3c747370616e2060608201527f783d223237372220793d223537302e323733223e000000000000000000000000608082015250565b6000610c58609483610b7f565b9150610c6382610b8a565b609482019050919050565b6000610c7982610acd565b610c838185610b7f565b9350610c93818560208601610ae9565b80840191505092915050565b7f3c2f747370616e3e3c2f746578743e0000000000000000000000000000000000600082015250565b6000610cd5600f83610b7f565b9150610ce082610c9f565b600f82019050919050565b6000610cf682610c4b565b9150610d028284610c6e565b9150610d0d82610cc8565b915081905092915050565b7f4e487b7100000000000000000000000000000000000000000000000000000000600052603260045260246000fd5b7f3c746578742066696c6c3d22233630334445422220786d6c3a73706163653d2260008201527f707265736572766522207374796c653d2277686974652d73706163653a20707260208201527f652220666f6e742d73697a653d2232302220666f6e742d7765696768743d223660408201527f303022206c65747465722d73706163696e673d2230656d223e3c747370616e2060608201527f783d223237372220793d223635392e323733223e000000000000000000000000608082015250565b6000610e15609483610b7f565b9150610e2082610d47565b609482019050919050565b7f4e487b7100000000000000000000000000000000000000000000000000000000600052602260045260246000fd5b60006002820490506001821680610e7257607f821691505b602082108103610e8557610e84610e2b565b5b50919050565b60008190508160005260206000209050919050565b60008154610ead81610e5a565b610eb78186610b7f565b94506001821660008114610ed25760018114610ee757610f1a565b60ff1983168652811515820286019350610f1a565b610ef085610e8b565b60005b83811015610f1257815481890152600182019150602081019050610ef3565b838801955050505b50505092915050565b7f2000000000000000000000000000000000000000000000000000000000000000600082015250565b6000610f59600183610b7f565b9150610f6482610f23565b600182019050919050565b7f2c20000000000000000000000000000000000000000000000000000000000000600082015250565b6000610fa5600283610b7f565b9150610fb082610f6f565b600282019050919050565b7f262331303b3c2f747370616e3e3c747370616e20783d223237372220793d223660008201527f38332e323733223e262331303b3c2f747370616e3e3c747370616e20783d223260208201527f37372220793d223730372e323733223e262331303b3c2f747370616e3e3c747360408201527f70616e20783d223237372220793d223733312e323733223e262331303b3c2f7460608201527f7370616e3e3c747370616e20783d223237372220793d223735352e323733223e60808201527f262331303b3c2f747370616e3e3c747370616e20783d223237372220793d223760a08201527f37392e323733223e262331303b3c2f747370616e3e3c747370616e20783d223260c08201527f37372220793d223830332e323733223e262331303b3c2f747370616e3e3c747360e08201527f70616e20783d223237372220793d223832372e323733223e262331303b3c2f746101008201527f7370616e3e3c747370616e20783d223237372220793d223835312e323733223e6101208201527f262331303b3c2f747370616e3e3c747370616e20783d223237372220793d22386101408201527f37352e323733223e262331303b3c2f747370616e3e3c747370616e20783d22326101608201527f37372220793d223839392e323733223e262331303b3c2f747370616e3e3c74736101808201527f70616e20783d223237372220793d223932332e323733223e262331303b3c2f746101a08201527f7370616e3e3c747370616e20783d223237372220793d223934372e323733223e6101c08201527f262331303b3c2f747370616e3e3c2f746578743e0000000000000000000000006101e082015250565b60006112346101f483610b7f565b915061123f82610fbb565b6101f482019050919050565b600061125682610e08565b91506112628286610ea0565b915061126d82610f4c565b91506112798285610c6e565b915061128482610f98565b91506112908284610c6e565b915061129b82611226565b9150819050949350505050565b7f3c7376672077696474683d223130323422206865696768743d2231303234222060008201527f76696577426f783d2230203020313032342031303234222066696c6c3d226e6f60208201527f6e652220786d6c6e733d22687474703a2f2f7777772e77332e6f72672f32303060408201527f302f737667223e00000000000000000000000000000000000000000000000000606082015250565b6000611350606783610b7f565b915061135b826112a8565b606782019050919050565b7f3c7374796c653e746578742c20747370616e207b20666f6e742d66616d696c7960008201527f3a2022496e746572222c20417269616c2c2022526f626f746f20436f6e64656e60208201527f736564222c20224f70656e2053616e73222c2073616e733b20207d3c2f73747960408201527f6c653e0000000000000000000000000000000000000000000000000000000000606082015250565b600061140e606383610b7f565b915061141982611366565b606382019050919050565b7f3c726563742077696474683d223130323422206865696768743d22313032342260008201527f2066696c6c3d222346324336354522202f3e203c672066696c7465723d22757260208201527f6c282366696c746572305f645f323031385f3236303729223e203c6720636c6960408201527f702d706174683d2275726c2823636c6970305f323031385f3236303729223e2060608201527f3c7061746820643d224d3233372035344838313156313236483233375635345a60808201527f222066696c6c3d222346354635463522202f3e203c7061746820643d224d343860a08201527f38203930433438382038372e37393039203438392e373931203836203439322060c08201527f383648353536433535382e323039203836203536302038372e3739303920353660e08201527f30203930563930433536302039322e32303931203535382e32303920393420356101008201527f353620393448343932433438392e373931203934203438382039322e323039316101208201527f203438382039305639305a222066696c6c3d222346324336354522202f3e203c6101408201527f726563742077696474683d2235373422206865696768743d22313636222074726101608201527f616e73666f726d3d227472616e736c617465283233372031323629222066696c6101808201527f6c3d222346354635463522202f3e203c746578742066696c6c3d2223323131386101a08201527f31342220786d6c3a73706163653d22707265736572766522207374796c653d226101c08201527f77686974652d73706163653a207072652220666f6e742d73697a653d223238226101e08201527f206c65747465722d73706163696e673d2230656d223e3c747370616e20783d226102008201527f3237372220793d223233372e383634223e627920556e6c6f636b204c6162733c6102208201527f2f747370616e3e3c2f746578743e203c746578742066696c6c3d2223323131386102408201527f31342220786d6c3a73706163653d22707265736572766522207374796c653d226102608201527f77686974652d73706163653a207072652220666f6e742d73697a653d223132226102808201527f206c65747465722d73706163696e673d2230656d223e3c747370616e20783d226102a08201527f3237372220793d223230332e383634223e262331303b3c2f747370616e3e3c2f6102c08201527f746578743e203c746578742066696c6c3d2275726c28237061696e74305f6c696102e08201527f6e6561725f323031385f32363037292220786d6c3a73706163653d22707265736103008201527f6572766522207374796c653d2277686974652d73706163653a207072652220666103208201527f6f6e742d73697a653d2234382220666f6e742d7765696768743d2238303022206103408201527f6c65747465722d73706163696e673d2230656d223e3c747370616e20783d22326103608201527f37372220793d223231302e343535223e554e4c4f434b205052494d453c2f74736103808201527f70616e3e3c2f746578743e203c726563742077696474683d22353734222068656103a08201527f696768743d2235393822207472616e73666f726d3d227472616e736c617465286103c08201527f3233372032393229222066696c6c3d22776869746522202f3e203c74657874206103e08201527f66696c6c3d22233231313831342220786d6c3a73706163653d227072657365726104008201527f766522207374796c653d2277686974652d73706163653a207072652220666f6e6104208201527f742d73697a653d2235312220666f6e742d7765696768743d22626f6c6422206c6104408201527f65747465722d73706163696e673d2230656d223e3c747370616e20783d2232376104608201527f372220793d223338392e353435223e4d7920556e6c6f636b203c2f747370616e6104808201527f3e3c747370616e20783d223237372220793d223435312e353435223e5072696d6104a08201527f6520506173733c2f747370616e3e3c2f746578743e203c746578742066696c6c6104c08201527f3d22233231313831342220786d6c3a73706163653d22707265736572766522206104e08201527f7374796c653d2277686974652d73706163653a207072652220666f6e742d73696105008201527f7a653d2232342220666f6e742d7765696768743d2235303022206c65747465726105208201527f2d73706163696e673d2230656d223e3c747370616e20783d223237372220793d6105408201527f223534302e353435223e4d656d62657220416464726573733c2f747370616e3e6105608201527f3c2f746578743e203c746578742066696c6c3d22233231313831342220786d6c6105808201527f3a73706163653d22707265736572766522207374796c653d2277686974652d736105a08201527f706163653a207072652220666f6e742d73697a653d2231382220666f6e742d776105c08201527f65696768743d2235303022206c65747465722d73706163696e673d2230656d226105e08201527f3e3c747370616e20783d223237372220793d223438392e353435223e262331306106008201527f3b3c2f747370616e3e3c747370616e20783d223237372220793d223531312e356106208201527f3435223e262331303b3c2f747370616e3e3c2f746578743e000000000000000061064082015250565b6000611bf261065883610b7f565b9150611bfd82611424565b61065882019050919050565b7f3c746578742066696c6c3d22233231313831342220786d6c3a73706163653d2260008201527f707265736572766522207374796c653d2277686974652d73706163653a20707260208201527f652220666f6e742d73697a653d2232342220666f6e742d7765696768743d223560408201527f303022206c65747465722d73706163696e673d2230656d223e3c747370616e2060608201527f783d223237372220793d223632392e353435223e56616c6964205468726f756760808201527f683c2f747370616e3e3c2f746578743e3c746578742066696c6c3d222332313160a08201527f3831342220786d6c3a73706163653d22707265736572766522207374796c653d60c08201527f2277686974652d73706163653a207072652220666f6e742d73697a653d22313860e08201527f2220666f6e742d7765696768743d2235303022206c65747465722d73706163696101008201527f6e673d2230656d223e3c747370616e20783d223237372220793d223630302e356101208201527f3435223e262331303b3c2f747370616e3e3c2f746578743e000000000000000061014082015250565b6000611dbf61015883610b7f565b9150611dca82611c09565b61015882019050919050565b7f3c726563742077696474683d2235373422206865696768743d2238362220747260008201527f616e73666f726d3d227472616e736c617465283233372038393029222066696c60208201527f6c3d22776869746522202f3e3c2f673e3c2f673e3c706174682066696c6c2d7260408201527f756c653d226576656e6f64642220636c69702d72756c653d226576656e6f646460608201527f2220643d224d3535352e35313920304c343837203930483535332e3438314c3660808201527f32322030483535352e3531395a222066696c6c3d22776869746522202f3e3c7060a08201527f6174682066696c6c2d72756c653d226576656e6f64642220636c69702d72756c60c08201527f653d226576656e6f64642220643d224d34323420304c3439322e35313920393060e08201527f483535394c3439302e3438312030483432345a222066696c6c3d2277686974656101008201527f22202f3e3c646566733e3c66696c7465722069643d2266696c746572305f645f6101208201527f323031385f323630372220783d223230392220793d223236222077696474683d6101408201527f2236333022206865696768743d22393738222066696c746572556e6974733d226101608201527f7573657253706163654f6e5573652220636f6c6f722d696e746572706f6c61746101808201527f696f6e2d66696c746572733d2273524742223e3c6665466c6f6f6420666c6f6f6101a08201527f642d6f7061636974793d22302220726573756c743d224261636b67726f756e646101c08201527f496d61676546697822202f3e3c6665436f6c6f724d617472697820696e3d22536101e08201527f6f75726365416c7068612220747970653d226d6174726978222076616c7565736102008201527f3d223020302030203020302030203020302030203020302030203020302030206102208201527f30203020302031323720302220726573756c743d2268617264416c70686122206102408201527f2f3e3c66654d6f7270686f6c6f6779207261646975733d223422206f706572616102608201527f746f723d2264696c6174652220696e3d22536f75726365416c706861222072656102808201527f73756c743d22656666656374315f64726f70536861646f775f323031385f32366102a08201527f303722202f3e3c66654f6666736574202f3e3c6665476175737369616e426c756102c08201527f7220737464446576696174696f6e3d22313222202f3e3c6665436f6c6f724d616102e08201527f7472697820747970653d226d6174726978222076616c7565733d2230203020306103008201527f203020302e313239343132203020302030203020302e303934313137362030206103208201527f302030203020302e3037383433313420302030203020302e3135203022202f3e6103408201527f3c6665426c656e64206d6f64653d226e6f726d616c2220696e323d224261636b6103608201527f67726f756e64496d6167654669782220726573756c743d22656666656374315f6103808201527f64726f70536861646f775f323031385f3236303722202f3e3c6665426c656e646103a08201527f206d6f64653d226e6f726d616c2220696e3d22536f75726365477261706869636103c08201527f2220696e323d22656666656374315f64726f70536861646f775f323031385f326103e08201527f3630372220726573756c743d22736861706522202f3e3c2f66696c7465723e3c6104008201527f6c696e6561724772616469656e742069643d227061696e74305f6c696e6561726104208201527f5f323031385f32363037222078313d22323737222079313d223137312e3439316104408201527f222078323d223332382e363235222079323d2231342e343339312220677261646104608201527f69656e74556e6974733d227573657253706163654f6e557365223e3c73746f706104808201527f2073746f702d636f6c6f723d222336303344454222202f3e3c73746f70206f666104a08201527f667365743d2231222073746f702d636f6c6f723d222332374331443622202f3e6104c08201527f3c2f6c696e6561724772616469656e743e3c636c6970506174682069643d22636104e08201527f6c6970305f323031385f32363037223e3c7265637420783d223233372220793d6105008201527f223534222077696474683d2235373422206865696768743d22393232222072786105208201527f3d223234222066696c6c3d22776869746522202f3e3c2f636c6970506174683e6105408201527f3c2f646566733e3c2f7376673e0000000000000000000000000000000000000061056082015250565b600061249361056d83610b7f565b915061249e82611dd6565b61056d82019050919050565b60006124b582611343565b91506124c082611401565b91506124cb82611be4565b91506124d78285610c6e565b91506124e282611db1565b91506124ee8284610c6e565b91506124f982612485565b91508190509392505050565b60006125118284610c6e565b915081905092915050565b7f646174613a696d6167652f7376672b786d6c3b6261736536342c000000000000600082015250565b6000612552601a83610b7f565b915061255d8261251c565b601a82019050919050565b600061257382612545565b915061257f8284610c6e565b915081905092915050565b7f7b20226e616d6522203a2022556e6c6f636b205072696d65222c20226578746560008201527f726e616c5f75726c223a2268747470733a2f2f6170702e756e6c6f636b2d707260208201527f6f746f636f6c2e636f6d2f7072696d65222c226465736372697074696f6e223a60408201527f22556e6c6f636b205072696d65206f666665727320656e68616e63656420666560608201527f6174757265732c206d6f6e74686c792045544820726577617264732c20756e6c60808201527f696d69746564206576656e74732c20616e64206578636c75736976652070617260a08201527f746e657220646973636f756e747320666f72206d656d626572732e204272696e60c08201527f6720796f7572206f6e636861696e20657870657269656e63657320746f20746860e08201527f65206e657874206c6576656c20776974682061207072656d69756d206d656d626101008201527f657273686970207468617420776f726b73206163726f737320616c6c207468656101208201527f20617070732066726f6d20556e6c6f636b204c616273222c22696d616765223a6101408201527f220000000000000000000000000000000000000000000000000000000000000061016082015250565b600061276761016183610b7f565b91506127728261258a565b61016182019050919050565b7f227d000000000000000000000000000000000000000000000000000000000000600082015250565b60006127b4600283610b7f565b91506127bf8261277e565b600282019050919050565b60006127d582612759565b91506127e18284610c6e565b91506127ec826127a7565b915081905092915050565b7f646174613a6170706c69636174696f6e2f6a736f6e3b6261736536342c000000600082015250565b600061282d601d83610b7f565b9150612838826127f7565b601d82019050919050565b600061284e82612820565b915061285a8284610c6e565b915081905092915050565b7f4e487b7100000000000000000000000000000000000000000000000000000000600052601260045260246000fd5b7f4e487b7100000000000000000000000000000000000000000000000000000000600052601160045260246000fd5b60006128ce82610a1c565b91506128d983610a1c565b9250826128e9576128e8612865565b5b828204905092915050565b7f4e487b7100000000000000000000000000000000000000000000000000000000600052604160045260246000fd5b600061292e82610a1c565b915061293983610a1c565b925082820190508082111561295157612950612894565b5b92915050565b600061296282610a1c565b915061296d83610a1c565b925082820261297b81610a1c565b9150828204841483151761299257612991612894565b5b5092915050565b60006129a482610a1c565b9150600082036129b7576129b6612894565b5b600182039050919050565b6129cb81610a1c565b82525050565b60006040820190506129e660008301856129c2565b6129f360208301846129c2565b9392505050565b6000819050919050565b6000612a0f826129fa565b9150612a1a836129fa565b925082820190508281121560008312168382126000841215161715612a4257612a41612894565b5b92915050565b6000612a53826129fa565b9150612a5e836129fa565b9250828202612a6c816129fa565b91507f80000000000000000000000000000000000000000000000000000000000000008414600084121615612aa457612aa3612894565b5b8282058414831517612ab957612ab8612894565b5b5092915050565b6000612acb826129fa565b9150612ad6836129fa565b925082612ae657612ae5612865565b5b600160000383147f800000000000000000000000000000000000000000000000000000000000000083141615612b1f57612b1e612894565b5b828205905092915050565b6000612b35826129fa565b9150612b40836129fa565b9250828203905081811260008412168282136000851215161715612b6757612b66612894565b5b9291505056fe4142434445464748494a4b4c4d4e4f505152535455565758595a6162636465666768696a6b6c6d6e6f707172737475767778797a303132333435363738392b2fa2646970667358221220d3c943750c9941d647f1813e6546a6b90dbff0ec14bee82f9073dba1e3675d5964736f6c634300081b0033",
          "opcodes": "PUSH1 0x80 PUSH1 0x40 MSTORE PUSH1 0x40 MLOAD DUP1 PUSH2 0x1A0 ADD PUSH1 0x40 MSTORE DUP1 PUSH1 0x40 MLOAD DUP1 PUSH1 0x20 ADD PUSH1 0x40 MSTORE DUP1 PUSH1 0x0 DUP2 MSTORE POP DUP2 MSTORE PUSH1 0x20 ADD PUSH1 0x40 MLOAD DUP1 PUSH1 0x40 ADD PUSH1 0x40 MSTORE DUP1 PUSH1 0x7 DUP2 MSTORE PUSH1 0x20 ADD PUSH32 0x4A616E7561727900000000000000000000000000000000000000000000000000 DUP2 MSTORE POP DUP2 MSTORE PUSH1 0x20 ADD PUSH1 0x40 MLOAD DUP1 PUSH1 0x40 ADD PUSH1 0x40 MSTORE DUP1 PUSH1 0x8 DUP2 MSTORE PUSH1 0x20 ADD PUSH32 0x4665627275617279000000000000000000000000000000000000000000000000 DUP2 MSTORE POP DUP2 MSTORE PUSH1 0x20 ADD PUSH1 0x40 MLOAD DUP1 PUSH1 0x40 ADD PUSH1 0x40 MSTORE DUP1 PUSH1 0x5 DUP2 MSTORE PUSH1 0x20 ADD PUSH32 0x4D61726368000000000000000000000000000000000000000000000000000000 DUP2 MSTORE POP DUP2 MSTORE PUSH1 0x20 ADD PUSH1 0x40 MLOAD DUP1 PUSH1 0x40 ADD PUSH1 0x40 MSTORE DUP1 PUSH1 0x5 DUP2 MSTORE PUSH1 0x20 ADD PUSH32 0x417072696C000000000000000000000000000000000000000000000000000000 DUP2 MSTORE POP DUP2 MSTORE PUSH1 0x20 ADD PUSH1 0x40 MLOAD DUP1 PUSH1 0x40 ADD PUSH1 0x40 MSTORE DUP1 PUSH1 0x3 DUP2 MSTORE PUSH1 0x20 ADD PUSH32 0x4D61790000000000000000000000000000000000000000000000000000000000 DUP2 MSTORE POP DUP2 MSTORE PUSH1 0x20 ADD PUSH1 0x40 MLOAD DUP1 PUSH1 0x40 ADD PUSH1 0x40 MSTORE DUP1 PUSH1 0x4 DUP2 MSTORE PUSH1 0x20 ADD PUSH32 0x4A756E6500000000000000000000000000000000000000000000000000000000 DUP2 MSTORE POP DUP2 MSTORE PUSH1 0x20 ADD PUSH1 0x40 MLOAD DUP1 PUSH1 0x40 ADD PUSH1 0x40 MSTORE DUP1 PUSH1 0x4 DUP2 MSTORE PUSH1 0x20 ADD PUSH32 0x4A756C7900000000000000000000000000000000000000000000000000000000 DUP2 MSTORE POP DUP2 MSTORE PUSH1 0x20 ADD PUSH1 0x40 MLOAD DUP1 PUSH1 0x40 ADD PUSH1 0x40 MSTORE DUP1 PUSH1 0x6 DUP2 MSTORE PUSH1 0x20 ADD PUSH32 0x4175677573740000000000000000000000000000000000000000000000000000 DUP2 MSTORE POP DUP2 MSTORE PUSH1 0x20 ADD PUSH1 0x40 MLOAD DUP1 PUSH1 0x40 ADD PUSH1 0x40 MSTORE DUP1 PUSH1 0x9 DUP2 MSTORE PUSH1 0x20 ADD PUSH32 0x53657074656D6265720000000000000000000000000000000000000000000000 DUP2 MSTORE POP DUP2 MSTORE PUSH1 0x20 ADD PUSH1 0x40 MLOAD DUP1 PUSH1 0x40 ADD PUSH1 0x40 MSTORE DUP1 PUSH1 0x7 DUP2 MSTORE PUSH1 0x20 ADD PUSH32 0x4F63746F62657200000000000000000000000000000000000000000000000000 DUP2 MSTORE POP DUP2 MSTORE PUSH1 0x20 ADD PUSH1 0x40 MLOAD DUP1 PUSH1 0x40 ADD PUSH1 0x40 MSTORE DUP1 PUSH1 0x8 DUP2 MSTORE PUSH1 0x20 ADD PUSH32 0x4E6F76656D626572000000000000000000000000000000000000000000000000 DUP2 MSTORE POP DUP2 MSTORE PUSH1 0x20 ADD PUSH1 0x40 MLOAD DUP1 PUSH1 0x40 ADD PUSH1 0x40 MSTORE DUP1 PUSH1 0x8 DUP2 MSTORE PUSH1 0x20 ADD PUSH32 0x446563656D626572000000000000000000000000000000000000000000000000 DUP2 MSTORE POP DUP2 MSTORE POP PUSH1 0x0 SWAP1 PUSH1 0xD PUSH2 0x2F7 SWAP3 SWAP2 SWAP1 PUSH2 0x30A JUMP JUMPDEST POP CALLVALUE DUP1 ISZERO PUSH2 0x304 JUMPI PUSH1 0x0 DUP1 REVERT JUMPDEST POP PUSH2 0x706 JUMP JUMPDEST DUP3 DUP1 SLOAD DUP3 DUP3 SSTORE SWAP1 PUSH1 0x0 MSTORE PUSH1 0x20 PUSH1 0x0 KECCAK256 SWAP1 DUP2 ADD SWAP3 DUP3 ISZERO PUSH2 0x352 JUMPI SWAP2 PUSH1 0x20 MUL DUP3 ADD JUMPDEST DUP3 DUP2 GT ISZERO PUSH2 0x351 JUMPI DUP3 MLOAD DUP3 SWAP1 DUP2 PUSH2 0x341 SWAP2 SWAP1 PUSH2 0x634 JUMP JUMPDEST POP SWAP2 PUSH1 0x20 ADD SWAP2 SWAP1 PUSH1 0x1 ADD SWAP1 PUSH2 0x32A JUMP JUMPDEST JUMPDEST POP SWAP1 POP PUSH2 0x35F SWAP2 SWAP1 PUSH2 0x363 JUMP JUMPDEST POP SWAP1 JUMP JUMPDEST JUMPDEST DUP1 DUP3 GT ISZERO PUSH2 0x383 JUMPI PUSH1 0x0 DUP2 DUP2 PUSH2 0x37A SWAP2 SWAP1 PUSH2 0x387 JUMP JUMPDEST POP PUSH1 0x1 ADD PUSH2 0x364 JUMP JUMPDEST POP SWAP1 JUMP JUMPDEST POP DUP1 SLOAD PUSH2 0x393 SWAP1 PUSH2 0x44D JUMP JUMPDEST PUSH1 0x0 DUP3 SSTORE DUP1 PUSH1 0x1F LT PUSH2 0x3A5 JUMPI POP PUSH2 0x3C4 JUMP JUMPDEST PUSH1 0x1F ADD PUSH1 0x20 SWAP1 DIV SWAP1 PUSH1 0x0 MSTORE PUSH1 0x20 PUSH1 0x0 KECCAK256 SWAP1 DUP2 ADD SWAP1 PUSH2 0x3C3 SWAP2 SWAP1 PUSH2 0x3C7 JUMP JUMPDEST JUMPDEST POP JUMP JUMPDEST JUMPDEST DUP1 DUP3 GT ISZERO PUSH2 0x3E0 JUMPI PUSH1 0x0 DUP2 PUSH1 0x0 SWAP1 SSTORE POP PUSH1 0x1 ADD PUSH2 0x3C8 JUMP JUMPDEST POP SWAP1 JUMP JUMPDEST PUSH1 0x0 DUP2 MLOAD SWAP1 POP SWAP2 SWAP1 POP JUMP JUMPDEST PUSH32 0x4E487B7100000000000000000000000000000000000000000000000000000000 PUSH1 0x0 MSTORE PUSH1 0x41 PUSH1 0x4 MSTORE PUSH1 0x24 PUSH1 0x0 REVERT JUMPDEST PUSH32 0x4E487B7100000000000000000000000000000000000000000000000000000000 PUSH1 0x0 MSTORE PUSH1 0x22 PUSH1 0x4 MSTORE PUSH1 0x24 PUSH1 0x0 REVERT JUMPDEST PUSH1 0x0 PUSH1 0x2 DUP3 DIV SWAP1 POP PUSH1 0x1 DUP3 AND DUP1 PUSH2 0x465 JUMPI PUSH1 0x7F DUP3 AND SWAP2 POP JUMPDEST PUSH1 0x20 DUP3 LT DUP2 SUB PUSH2 0x478 JUMPI PUSH2 0x477 PUSH2 0x41E JUMP JUMPDEST JUMPDEST POP SWAP2 SWAP1 POP JUMP JUMPDEST PUSH1 0x0 DUP2 SWAP1 POP DUP2 PUSH1 0x0 MSTORE PUSH1 0x20 PUSH1 0x0 KECCAK256 SWAP1 POP SWAP2 SWAP1 POP JUMP JUMPDEST PUSH1 0x0 PUSH1 0x20 PUSH1 0x1F DUP4 ADD DIV SWAP1 POP SWAP2 SWAP1 POP JUMP JUMPDEST PUSH1 0x0 DUP3 DUP3 SHL SWAP1 POP SWAP3 SWAP2 POP POP JUMP JUMPDEST PUSH1 0x0 PUSH1 0x8 DUP4 MUL PUSH2 0x4E0 PUSH32 0xFFFFFFFFFFFFFFFFFFFFFFFFFFFFFFFFFFFFFFFFFFFFFFFFFFFFFFFFFFFFFFFF DUP3 PUSH2 0x4A3 JUMP JUMPDEST PUSH2 0x4EA DUP7 DUP4 PUSH2 0x4A3 JUMP JUMPDEST SWAP6 POP DUP1 NOT DUP5 AND SWAP4 POP DUP1 DUP7 AND DUP5 OR SWAP3 POP POP POP SWAP4 SWAP3 POP POP POP JUMP JUMPDEST PUSH1 0x0 DUP2 SWAP1 POP SWAP2 SWAP1 POP JUMP JUMPDEST PUSH1 0x0 DUP2 SWAP1 POP SWAP2 SWAP1 POP JUMP JUMPDEST PUSH1 0x0 PUSH2 0x531 PUSH2 0x52C PUSH2 0x527 DUP5 PUSH2 0x502 JUMP JUMPDEST PUSH2 0x50C JUMP JUMPDEST PUSH2 0x502 JUMP JUMPDEST SWAP1 POP SWAP2 SWAP1 POP JUMP JUMPDEST PUSH1 0x0 DUP2 SWAP1 POP SWAP2 SWAP1 POP JUMP JUMPDEST PUSH2 0x54B DUP4 PUSH2 0x516 JUMP JUMPDEST PUSH2 0x55F PUSH2 0x557 DUP3 PUSH2 0x538 JUMP JUMPDEST DUP5 DUP5 SLOAD PUSH2 0x4B0 JUMP JUMPDEST DUP3 SSTORE POP POP POP POP JUMP JUMPDEST PUSH1 0x0 SWAP1 JUMP JUMPDEST PUSH2 0x574 PUSH2 0x567 JUMP JUMPDEST PUSH2 0x57F DUP2 DUP5 DUP5 PUSH2 0x542 JUMP JUMPDEST POP POP POP JUMP JUMPDEST JUMPDEST DUP2 DUP2 LT ISZERO PUSH2 0x5A3 JUMPI PUSH2 0x598 PUSH1 0x0 DUP3 PUSH2 0x56C JUMP JUMPDEST PUSH1 0x1 DUP2 ADD SWAP1 POP PUSH2 0x585 JUMP JUMPDEST POP POP JUMP JUMPDEST PUSH1 0x1F DUP3 GT ISZERO PUSH2 0x5E8 JUMPI PUSH2 0x5B9 DUP2 PUSH2 0x47E JUMP JUMPDEST PUSH2 0x5C2 DUP5 PUSH2 0x493 JUMP JUMPDEST DUP2 ADD PUSH1 0x20 DUP6 LT ISZERO PUSH2 0x5D1 JUMPI DUP2 SWAP1 POP JUMPDEST PUSH2 0x5E5 PUSH2 0x5DD DUP6 PUSH2 0x493 JUMP JUMPDEST DUP4 ADD DUP3 PUSH2 0x584 JUMP JUMPDEST POP POP JUMPDEST POP POP POP JUMP JUMPDEST PUSH1 0x0 DUP3 DUP3 SHR SWAP1 POP SWAP3 SWAP2 POP POP JUMP JUMPDEST PUSH1 0x0 PUSH2 0x60B PUSH1 0x0 NOT DUP5 PUSH1 0x8 MUL PUSH2 0x5ED JUMP JUMPDEST NOT DUP1 DUP4 AND SWAP2 POP POP SWAP3 SWAP2 POP POP JUMP JUMPDEST PUSH1 0x0 PUSH2 0x624 DUP4 DUP4 PUSH2 0x5FA JUMP JUMPDEST SWAP2 POP DUP3 PUSH1 0x2 MUL DUP3 OR SWAP1 POP SWAP3 SWAP2 POP POP JUMP JUMPDEST PUSH2 0x63D DUP3 PUSH2 0x3E4 JUMP JUMPDEST PUSH8 0xFFFFFFFFFFFFFFFF DUP2 GT ISZERO PUSH2 0x656 JUMPI PUSH2 0x655 PUSH2 0x3EF JUMP JUMPDEST JUMPDEST PUSH2 0x660 DUP3 SLOAD PUSH2 0x44D JUMP JUMPDEST PUSH2 0x66B DUP3 DUP3 DUP6 PUSH2 0x5A7 JUMP JUMPDEST PUSH1 0x0 PUSH1 0x20 SWAP1 POP PUSH1 0x1F DUP4 GT PUSH1 0x1 DUP2 EQ PUSH2 0x69E JUMPI PUSH1 0x0 DUP5 ISZERO PUSH2 0x68C JUMPI DUP3 DUP8 ADD MLOAD SWAP1 POP JUMPDEST PUSH2 0x696 DUP6 DUP3 PUSH2 0x618 JUMP JUMPDEST DUP7 SSTORE POP PUSH2 0x6FE JUMP JUMPDEST PUSH1 0x1F NOT DUP5 AND PUSH2 0x6AC DUP7 PUSH2 0x47E JUMP JUMPDEST PUSH1 0x0 JUMPDEST DUP3 DUP2 LT ISZERO PUSH2 0x6D4 JUMPI DUP5 DUP10 ADD MLOAD DUP3 SSTORE PUSH1 0x1 DUP3 ADD SWAP2 POP PUSH1 0x20 DUP6 ADD SWAP5 POP PUSH1 0x20 DUP2 ADD SWAP1 POP PUSH2 0x6AF JUMP JUMPDEST DUP7 DUP4 LT ISZERO PUSH2 0x6F1 JUMPI DUP5 DUP10 ADD MLOAD PUSH2 0x6ED PUSH1 0x1F DUP10 AND DUP3 PUSH2 0x5FA JUMP JUMPDEST DUP4 SSTORE POP JUMPDEST PUSH1 0x1 PUSH1 0x2 DUP9 MUL ADD DUP9 SSTORE POP POP POP JUMPDEST POP POP POP POP POP POP JUMP JUMPDEST PUSH2 0x2BE3 DUP1 PUSH2 0x715 PUSH1 0x0 CODECOPY PUSH1 0x0 RETURN INVALID PUSH1 0x80 PUSH1 0x40 MSTORE CALLVALUE DUP1 ISZERO PUSH2 0x10 JUMPI PUSH1 0x0 DUP1 REVERT JUMPDEST POP PUSH1 0x4 CALLDATASIZE LT PUSH2 0x2B JUMPI PUSH1 0x0 CALLDATALOAD PUSH1 0xE0 SHR DUP1 PUSH4 0x988B93AD EQ PUSH2 0x30 JUMPI JUMPDEST PUSH1 0x0 DUP1 REVERT JUMPDEST PUSH2 0x4A PUSH1 0x4 DUP1 CALLDATASIZE SUB DUP2 ADD SWAP1 PUSH2 0x45 SWAP2 SWAP1 PUSH2 0xA52 JUMP JUMPDEST PUSH2 0x60 JUMP JUMPDEST PUSH1 0x40 MLOAD PUSH2 0x57 SWAP2 SWAP1 PUSH2 0xB5D JUMP JUMPDEST PUSH1 0x40 MLOAD DUP1 SWAP2 SUB SWAP1 RETURN JUMPDEST PUSH1 0x60 PUSH1 0x0 PUSH2 0x6D DUP6 PUSH2 0x1E5 JUMP JUMPDEST PUSH1 0x40 MLOAD PUSH1 0x20 ADD PUSH2 0x7D SWAP2 SWAP1 PUSH2 0xCEB JUMP JUMPDEST PUSH1 0x40 MLOAD PUSH1 0x20 DUP2 DUP4 SUB SUB DUP2 MSTORE SWAP1 PUSH1 0x40 MSTORE SWAP1 POP PUSH1 0x0 DUP1 PUSH1 0x0 PUSH2 0x9C DUP7 PUSH2 0x212 JUMP JUMPDEST SWAP3 POP SWAP3 POP SWAP3 POP PUSH1 0x0 DUP1 DUP4 DUP2 SLOAD DUP2 LT PUSH2 0xB7 JUMPI PUSH2 0xB6 PUSH2 0xD18 JUMP JUMPDEST JUMPDEST SWAP1 PUSH1 0x0 MSTORE PUSH1 0x20 PUSH1 0x0 KECCAK256 ADD PUSH2 0xCA DUP4 PUSH2 0x241 JUMP JUMPDEST PUSH2 0xD3 DUP7 PUSH2 0x241 JUMP JUMPDEST PUSH1 0x40 MLOAD PUSH1 0x20 ADD PUSH2 0xE5 SWAP4 SWAP3 SWAP2 SWAP1 PUSH2 0x124B JUMP JUMPDEST PUSH1 0x40 MLOAD PUSH1 0x20 DUP2 DUP4 SUB SUB DUP2 MSTORE SWAP1 PUSH1 0x40 MSTORE SWAP1 POP PUSH1 0x0 DUP6 DUP3 PUSH1 0x40 MLOAD PUSH1 0x20 ADD PUSH2 0x10B SWAP3 SWAP2 SWAP1 PUSH2 0x24AA JUMP JUMPDEST PUSH1 0x40 MLOAD PUSH1 0x20 DUP2 DUP4 SUB SUB DUP2 MSTORE SWAP1 PUSH1 0x40 MSTORE SWAP1 POP PUSH1 0x0 PUSH2 0x146 DUP3 PUSH1 0x40 MLOAD PUSH1 0x20 ADD PUSH2 0x132 SWAP2 SWAP1 PUSH2 0x2505 JUMP JUMPDEST PUSH1 0x40 MLOAD PUSH1 0x20 DUP2 DUP4 SUB SUB DUP2 MSTORE SWAP1 PUSH1 0x40 MSTORE PUSH2 0x30F JUMP JUMPDEST PUSH1 0x40 MLOAD PUSH1 0x20 ADD PUSH2 0x156 SWAP2 SWAP1 PUSH2 0x2568 JUMP JUMPDEST PUSH1 0x40 MLOAD PUSH1 0x20 DUP2 DUP4 SUB SUB DUP2 MSTORE SWAP1 PUSH1 0x40 MSTORE SWAP1 POP PUSH1 0x0 DUP2 PUSH1 0x40 MLOAD PUSH1 0x20 ADD PUSH2 0x17A SWAP2 SWAP1 PUSH2 0x27CA JUMP JUMPDEST PUSH1 0x40 MLOAD PUSH1 0x20 DUP2 DUP4 SUB SUB DUP2 MSTORE SWAP1 PUSH1 0x40 MSTORE SWAP1 POP PUSH2 0x1B3 DUP2 PUSH1 0x40 MLOAD PUSH1 0x20 ADD PUSH2 0x19F SWAP2 SWAP1 PUSH2 0x2505 JUMP JUMPDEST PUSH1 0x40 MLOAD PUSH1 0x20 DUP2 DUP4 SUB SUB DUP2 MSTORE SWAP1 PUSH1 0x40 MSTORE PUSH2 0x30F JUMP JUMPDEST PUSH1 0x40 MLOAD PUSH1 0x20 ADD PUSH2 0x1C3 SWAP2 SWAP1 PUSH2 0x2843 JUMP JUMPDEST PUSH1 0x40 MLOAD PUSH1 0x20 DUP2 DUP4 SUB SUB DUP2 MSTORE SWAP1 PUSH1 0x40 MSTORE SWAP9 POP POP POP POP POP POP POP POP POP SWAP6 SWAP5 POP POP POP POP POP JUMP JUMPDEST PUSH1 0x60 PUSH2 0x20B DUP3 PUSH20 0xFFFFFFFFFFFFFFFFFFFFFFFFFFFFFFFFFFFFFFFF AND PUSH1 0x14 PUSH1 0xFF AND PUSH2 0x481 JUMP JUMPDEST SWAP1 POP SWAP2 SWAP1 POP JUMP JUMPDEST PUSH1 0x0 DUP1 PUSH1 0x0 PUSH2 0x22E PUSH3 0x15180 DUP6 PUSH2 0x229 SWAP2 SWAP1 PUSH2 0x28C3 JUMP JUMPDEST PUSH2 0x6C7 JUMP JUMPDEST DUP1 SWAP4 POP DUP2 SWAP5 POP DUP3 SWAP6 POP POP POP POP SWAP2 SWAP4 SWAP1 SWAP3 POP JUMP JUMPDEST PUSH1 0x60 PUSH1 0x0 PUSH1 0x1 PUSH2 0x250 DUP5 PUSH2 0x866 JUMP JUMPDEST ADD SWAP1 POP PUSH1 0x0 DUP2 PUSH8 0xFFFFFFFFFFFFFFFF DUP2 GT ISZERO PUSH2 0x26F JUMPI PUSH2 0x26E PUSH2 0x28F4 JUMP JUMPDEST JUMPDEST PUSH1 0x40 MLOAD SWAP1 DUP1 DUP3 MSTORE DUP1 PUSH1 0x1F ADD PUSH1 0x1F NOT AND PUSH1 0x20 ADD DUP3 ADD PUSH1 0x40 MSTORE DUP1 ISZERO PUSH2 0x2A1 JUMPI DUP2 PUSH1 0x20 ADD PUSH1 0x1 DUP3 MUL DUP1 CALLDATASIZE DUP4 CALLDATACOPY DUP1 DUP3 ADD SWAP2 POP POP SWAP1 POP JUMPDEST POP SWAP1 POP PUSH1 0x0 DUP3 PUSH1 0x20 ADD DUP3 ADD SWAP1 POP JUMPDEST PUSH1 0x1 ISZERO PUSH2 0x304 JUMPI DUP1 DUP1 PUSH1 0x1 SWAP1 SUB SWAP2 POP POP PUSH32 0x3031323334353637383961626364656600000000000000000000000000000000 PUSH1 0xA DUP7 MOD BYTE DUP2 MSTORE8 PUSH1 0xA DUP6 DUP2 PUSH2 0x2F8 JUMPI PUSH2 0x2F7 PUSH2 0x2865 JUMP JUMPDEST JUMPDEST DIV SWAP5 POP PUSH1 0x0 DUP6 SUB PUSH2 0x2AF JUMPI JUMPDEST DUP2 SWAP4 POP POP POP POP SWAP2 SWAP1 POP JUMP JUMPDEST PUSH1 0x60 PUSH1 0x0 DUP3 MLOAD SUB PUSH2 0x331 JUMPI PUSH1 0x40 MLOAD DUP1 PUSH1 0x20 ADD PUSH1 0x40 MSTORE DUP1 PUSH1 0x0 DUP2 MSTORE POP SWAP1 POP PUSH2 0x47C JUMP JUMPDEST PUSH1 0x0 PUSH1 0x40 MLOAD DUP1 PUSH1 0x60 ADD PUSH1 0x40 MSTORE DUP1 PUSH1 0x40 DUP2 MSTORE PUSH1 0x20 ADD PUSH2 0x2B6E PUSH1 0x40 SWAP2 CODECOPY SWAP1 POP PUSH1 0x0 PUSH1 0x3 PUSH1 0x2 DUP6 MLOAD PUSH2 0x360 SWAP2 SWAP1 PUSH2 0x2923 JUMP JUMPDEST PUSH2 0x36A SWAP2 SWAP1 PUSH2 0x28C3 JUMP JUMPDEST PUSH1 0x4 PUSH2 0x376 SWAP2 SWAP1 PUSH2 0x2957 JUMP JUMPDEST PUSH8 0xFFFFFFFFFFFFFFFF DUP2 GT ISZERO PUSH2 0x38F JUMPI PUSH2 0x38E PUSH2 0x28F4 JUMP JUMPDEST JUMPDEST PUSH1 0x40 MLOAD SWAP1 DUP1 DUP3 MSTORE DUP1 PUSH1 0x1F ADD PUSH1 0x1F NOT AND PUSH1 0x20 ADD DUP3 ADD PUSH1 0x40 MSTORE DUP1 ISZERO PUSH2 0x3C1 JUMPI DUP2 PUSH1 0x20 ADD PUSH1 0x1 DUP3 MUL DUP1 CALLDATASIZE DUP4 CALLDATACOPY DUP1 DUP3 ADD SWAP2 POP POP SWAP1 POP JUMPDEST POP SWAP1 POP PUSH1 0x1 DUP3 ADD PUSH1 0x20 DUP3 ADD DUP6 DUP7 MLOAD DUP8 ADD PUSH1 0x20 DUP2 ADD DUP1 MLOAD PUSH1 0x0 DUP3 MSTORE JUMPDEST DUP3 DUP5 LT ISZERO PUSH2 0x437 JUMPI PUSH1 0x3 DUP5 ADD SWAP4 POP DUP4 MLOAD PUSH1 0x3F DUP2 PUSH1 0x12 SHR AND DUP8 ADD MLOAD DUP7 MSTORE8 PUSH1 0x1 DUP7 ADD SWAP6 POP PUSH1 0x3F DUP2 PUSH1 0xC SHR AND DUP8 ADD MLOAD DUP7 MSTORE8 PUSH1 0x1 DUP7 ADD SWAP6 POP PUSH1 0x3F DUP2 PUSH1 0x6 SHR AND DUP8 ADD MLOAD DUP7 MSTORE8 PUSH1 0x1 DUP7 ADD SWAP6 POP PUSH1 0x3F DUP2 AND DUP8 ADD MLOAD DUP7 MSTORE8 PUSH1 0x1 DUP7 ADD SWAP6 POP POP PUSH2 0x3DC JUMP JUMPDEST DUP1 DUP3 MSTORE PUSH1 0x3 DUP11 MLOAD MOD PUSH1 0x1 DUP2 EQ PUSH2 0x454 JUMPI PUSH1 0x2 DUP2 EQ PUSH2 0x467 JUMPI PUSH2 0x46F JUMP JUMPDEST PUSH1 0x3D PUSH1 0x1 DUP8 SUB MSTORE8 PUSH1 0x3D PUSH1 0x2 DUP8 SUB MSTORE8 PUSH2 0x46F JUMP JUMPDEST PUSH1 0x3D PUSH1 0x1 DUP8 SUB MSTORE8 JUMPDEST POP POP POP POP POP POP POP DUP1 SWAP3 POP POP POP JUMPDEST SWAP2 SWAP1 POP JUMP JUMPDEST PUSH1 0x60 PUSH1 0x0 DUP4 SWAP1 POP PUSH1 0x0 PUSH1 0x2 DUP5 PUSH1 0x2 PUSH2 0x499 SWAP2 SWAP1 PUSH2 0x2957 JUMP JUMPDEST PUSH2 0x4A3 SWAP2 SWAP1 PUSH2 0x2923 JUMP JUMPDEST PUSH8 0xFFFFFFFFFFFFFFFF DUP2 GT ISZERO PUSH2 0x4BC JUMPI PUSH2 0x4BB PUSH2 0x28F4 JUMP JUMPDEST JUMPDEST PUSH1 0x40 MLOAD SWAP1 DUP1 DUP3 MSTORE DUP1 PUSH1 0x1F ADD PUSH1 0x1F NOT AND PUSH1 0x20 ADD DUP3 ADD PUSH1 0x40 MSTORE DUP1 ISZERO PUSH2 0x4EE JUMPI DUP2 PUSH1 0x20 ADD PUSH1 0x1 DUP3 MUL DUP1 CALLDATASIZE DUP4 CALLDATACOPY DUP1 DUP3 ADD SWAP2 POP POP SWAP1 POP JUMPDEST POP SWAP1 POP PUSH32 0x3000000000000000000000000000000000000000000000000000000000000000 DUP2 PUSH1 0x0 DUP2 MLOAD DUP2 LT PUSH2 0x526 JUMPI PUSH2 0x525 PUSH2 0xD18 JUMP JUMPDEST JUMPDEST PUSH1 0x20 ADD ADD SWAP1 PUSH31 0xFFFFFFFFFFFFFFFFFFFFFFFFFFFFFFFFFFFFFFFFFFFFFFFFFFFFFFFFFFFFFF NOT AND SWAP1 DUP2 PUSH1 0x0 BYTE SWAP1 MSTORE8 POP PUSH32 0x7800000000000000000000000000000000000000000000000000000000000000 DUP2 PUSH1 0x1 DUP2 MLOAD DUP2 LT PUSH2 0x58A JUMPI PUSH2 0x589 PUSH2 0xD18 JUMP JUMPDEST JUMPDEST PUSH1 0x20 ADD ADD SWAP1 PUSH31 0xFFFFFFFFFFFFFFFFFFFFFFFFFFFFFFFFFFFFFFFFFFFFFFFFFFFFFFFFFFFFFF NOT AND SWAP1 DUP2 PUSH1 0x0 BYTE SWAP1 MSTORE8 POP PUSH1 0x0 PUSH1 0x1 DUP6 PUSH1 0x2 PUSH2 0x5CA SWAP2 SWAP1 PUSH2 0x2957 JUMP JUMPDEST PUSH2 0x5D4 SWAP2 SWAP1 PUSH2 0x2923 JUMP JUMPDEST SWAP1 POP JUMPDEST PUSH1 0x1 DUP2 GT ISZERO PUSH2 0x674 JUMPI PUSH32 0x3031323334353637383961626364656600000000000000000000000000000000 PUSH1 0xF DUP5 AND PUSH1 0x10 DUP2 LT PUSH2 0x616 JUMPI PUSH2 0x615 PUSH2 0xD18 JUMP JUMPDEST JUMPDEST BYTE PUSH1 0xF8 SHL DUP3 DUP3 DUP2 MLOAD DUP2 LT PUSH2 0x62D JUMPI PUSH2 0x62C PUSH2 0xD18 JUMP JUMPDEST JUMPDEST PUSH1 0x20 ADD ADD SWAP1 PUSH31 0xFFFFFFFFFFFFFFFFFFFFFFFFFFFFFFFFFFFFFFFFFFFFFFFFFFFFFFFFFFFFFF NOT AND SWAP1 DUP2 PUSH1 0x0 BYTE SWAP1 MSTORE8 POP PUSH1 0x4 DUP4 SWAP1 SHR SWAP3 POP DUP1 PUSH2 0x66D SWAP1 PUSH2 0x2999 JUMP JUMPDEST SWAP1 POP PUSH2 0x5D7 JUMP JUMPDEST POP PUSH1 0x0 DUP3 EQ PUSH2 0x6BC JUMPI DUP5 DUP5 PUSH1 0x40 MLOAD PUSH32 0xE22E27EB00000000000000000000000000000000000000000000000000000000 DUP2 MSTORE PUSH1 0x4 ADD PUSH2 0x6B3 SWAP3 SWAP2 SWAP1 PUSH2 0x29D1 JUMP JUMPDEST PUSH1 0x40 MLOAD DUP1 SWAP2 SUB SWAP1 REVERT JUMPDEST DUP1 SWAP3 POP POP POP SWAP3 SWAP2 POP POP JUMP JUMPDEST PUSH1 0x0 DUP1 PUSH1 0x0 DUP1 DUP5 SWAP1 POP PUSH1 0x0 PUSH3 0x253D8C PUSH3 0x10BD9 DUP4 PUSH2 0x6E5 SWAP2 SWAP1 PUSH2 0x2A04 JUMP JUMPDEST PUSH2 0x6EF SWAP2 SWAP1 PUSH2 0x2A04 JUMP JUMPDEST SWAP1 POP PUSH1 0x0 PUSH3 0x23AB1 DUP3 PUSH1 0x4 PUSH2 0x704 SWAP2 SWAP1 PUSH2 0x2A48 JUMP JUMPDEST PUSH2 0x70E SWAP2 SWAP1 PUSH2 0x2AC0 JUMP JUMPDEST SWAP1 POP PUSH1 0x4 PUSH1 0x3 DUP3 PUSH3 0x23AB1 PUSH2 0x723 SWAP2 SWAP1 PUSH2 0x2A48 JUMP JUMPDEST PUSH2 0x72D SWAP2 SWAP1 PUSH2 0x2A04 JUMP JUMPDEST PUSH2 0x737 SWAP2 SWAP1 PUSH2 0x2AC0 JUMP JUMPDEST DUP3 PUSH2 0x742 SWAP2 SWAP1 PUSH2 0x2B2A JUMP JUMPDEST SWAP2 POP PUSH1 0x0 PUSH3 0x164B09 PUSH1 0x1 DUP5 PUSH2 0x757 SWAP2 SWAP1 PUSH2 0x2A04 JUMP JUMPDEST PUSH2 0xFA0 PUSH2 0x764 SWAP2 SWAP1 PUSH2 0x2A48 JUMP JUMPDEST PUSH2 0x76E SWAP2 SWAP1 PUSH2 0x2AC0 JUMP JUMPDEST SWAP1 POP PUSH1 0x1F PUSH1 0x4 DUP3 PUSH2 0x5B5 PUSH2 0x782 SWAP2 SWAP1 PUSH2 0x2A48 JUMP JUMPDEST PUSH2 0x78C SWAP2 SWAP1 PUSH2 0x2AC0 JUMP JUMPDEST DUP5 PUSH2 0x797 SWAP2 SWAP1 PUSH2 0x2B2A JUMP JUMPDEST PUSH2 0x7A1 SWAP2 SWAP1 PUSH2 0x2A04 JUMP JUMPDEST SWAP3 POP PUSH1 0x0 PUSH2 0x98F DUP5 PUSH1 0x50 PUSH2 0x7B5 SWAP2 SWAP1 PUSH2 0x2A48 JUMP JUMPDEST PUSH2 0x7BF SWAP2 SWAP1 PUSH2 0x2AC0 JUMP JUMPDEST SWAP1 POP PUSH1 0x0 PUSH1 0x50 DUP3 PUSH2 0x98F PUSH2 0x7D3 SWAP2 SWAP1 PUSH2 0x2A48 JUMP JUMPDEST PUSH2 0x7DD SWAP2 SWAP1 PUSH2 0x2AC0 JUMP JUMPDEST DUP6 PUSH2 0x7E8 SWAP2 SWAP1 PUSH2 0x2B2A JUMP JUMPDEST SWAP1 POP PUSH1 0xB DUP3 PUSH2 0x7F7 SWAP2 SWAP1 PUSH2 0x2AC0 JUMP JUMPDEST SWAP5 POP DUP5 PUSH1 0xC PUSH2 0x806 SWAP2 SWAP1 PUSH2 0x2A48 JUMP JUMPDEST PUSH1 0x2 DUP4 PUSH2 0x813 SWAP2 SWAP1 PUSH2 0x2A04 JUMP JUMPDEST PUSH2 0x81D SWAP2 SWAP1 PUSH2 0x2B2A JUMP JUMPDEST SWAP2 POP DUP5 DUP4 PUSH1 0x31 DUP7 PUSH2 0x82E SWAP2 SWAP1 PUSH2 0x2B2A JUMP JUMPDEST PUSH1 0x64 PUSH2 0x83A SWAP2 SWAP1 PUSH2 0x2A48 JUMP JUMPDEST PUSH2 0x844 SWAP2 SWAP1 PUSH2 0x2A04 JUMP JUMPDEST PUSH2 0x84E SWAP2 SWAP1 PUSH2 0x2A04 JUMP JUMPDEST SWAP3 POP DUP3 SWAP9 POP DUP2 SWAP8 POP DUP1 SWAP7 POP POP POP POP POP POP POP SWAP2 SWAP4 SWAP1 SWAP3 POP JUMP JUMPDEST PUSH1 0x0 DUP1 PUSH1 0x0 SWAP1 POP PUSH27 0x184F03E93FF9F4DAA797ED6E38ED64BF6A1F010000000000000000 DUP4 LT PUSH2 0x8C4 JUMPI PUSH27 0x184F03E93FF9F4DAA797ED6E38ED64BF6A1F010000000000000000 DUP4 DUP2 PUSH2 0x8BA JUMPI PUSH2 0x8B9 PUSH2 0x2865 JUMP JUMPDEST JUMPDEST DIV SWAP3 POP PUSH1 0x40 DUP2 ADD SWAP1 POP JUMPDEST PUSH14 0x4EE2D6D415B85ACEF8100000000 DUP4 LT PUSH2 0x901 JUMPI PUSH14 0x4EE2D6D415B85ACEF8100000000 DUP4 DUP2 PUSH2 0x8F7 JUMPI PUSH2 0x8F6 PUSH2 0x2865 JUMP JUMPDEST JUMPDEST DIV SWAP3 POP PUSH1 0x20 DUP2 ADD SWAP1 POP JUMPDEST PUSH7 0x2386F26FC10000 DUP4 LT PUSH2 0x930 JUMPI PUSH7 0x2386F26FC10000 DUP4 DUP2 PUSH2 0x926 JUMPI PUSH2 0x925 PUSH2 0x2865 JUMP JUMPDEST JUMPDEST DIV SWAP3 POP PUSH1 0x10 DUP2 ADD SWAP1 POP JUMPDEST PUSH4 0x5F5E100 DUP4 LT PUSH2 0x959 JUMPI PUSH4 0x5F5E100 DUP4 DUP2 PUSH2 0x94F JUMPI PUSH2 0x94E PUSH2 0x2865 JUMP JUMPDEST JUMPDEST DIV SWAP3 POP PUSH1 0x8 DUP2 ADD SWAP1 POP JUMPDEST PUSH2 0x2710 DUP4 LT PUSH2 0x97E JUMPI PUSH2 0x2710 DUP4 DUP2 PUSH2 0x974 JUMPI PUSH2 0x973 PUSH2 0x2865 JUMP JUMPDEST JUMPDEST DIV SWAP3 POP PUSH1 0x4 DUP2 ADD SWAP1 POP JUMPDEST PUSH1 0x64 DUP4 LT PUSH2 0x9A1 JUMPI PUSH1 0x64 DUP4 DUP2 PUSH2 0x997 JUMPI PUSH2 0x996 PUSH2 0x2865 JUMP JUMPDEST JUMPDEST DIV SWAP3 POP PUSH1 0x2 DUP2 ADD SWAP1 POP JUMPDEST PUSH1 0xA DUP4 LT PUSH2 0x9B0 JUMPI PUSH1 0x1 DUP2 ADD SWAP1 POP JUMPDEST DUP1 SWAP2 POP POP SWAP2 SWAP1 POP JUMP JUMPDEST PUSH1 0x0 DUP1 REVERT JUMPDEST PUSH1 0x0 PUSH20 0xFFFFFFFFFFFFFFFFFFFFFFFFFFFFFFFFFFFFFFFF DUP3 AND SWAP1 POP SWAP2 SWAP1 POP JUMP JUMPDEST PUSH1 0x0 PUSH2 0x9E9 DUP3 PUSH2 0x9BE JUMP JUMPDEST SWAP1 POP SWAP2 SWAP1 POP JUMP JUMPDEST PUSH2 0x9F9 DUP2 PUSH2 0x9DE JUMP JUMPDEST DUP2 EQ PUSH2 0xA04 JUMPI PUSH1 0x0 DUP1 REVERT JUMPDEST POP JUMP JUMPDEST PUSH1 0x0 DUP2 CALLDATALOAD SWAP1 POP PUSH2 0xA16 DUP2 PUSH2 0x9F0 JUMP JUMPDEST SWAP3 SWAP2 POP POP JUMP JUMPDEST PUSH1 0x0 DUP2 SWAP1 POP SWAP2 SWAP1 POP JUMP JUMPDEST PUSH2 0xA2F DUP2 PUSH2 0xA1C JUMP JUMPDEST DUP2 EQ PUSH2 0xA3A JUMPI PUSH1 0x0 DUP1 REVERT JUMPDEST POP JUMP JUMPDEST PUSH1 0x0 DUP2 CALLDATALOAD SWAP1 POP PUSH2 0xA4C DUP2 PUSH2 0xA26 JUMP JUMPDEST SWAP3 SWAP2 POP POP JUMP JUMPDEST PUSH1 0x0 DUP1 PUSH1 0x0 DUP1 PUSH1 0x0 PUSH1 0xA0 DUP7 DUP9 SUB SLT ISZERO PUSH2 0xA6E JUMPI PUSH2 0xA6D PUSH2 0x9B9 JUMP JUMPDEST JUMPDEST PUSH1 0x0 PUSH2 0xA7C DUP9 DUP3 DUP10 ADD PUSH2 0xA07 JUMP JUMPDEST SWAP6 POP POP PUSH1 0x20 PUSH2 0xA8D DUP9 DUP3 DUP10 ADD PUSH2 0xA07 JUMP JUMPDEST SWAP5 POP POP PUSH1 0x40 PUSH2 0xA9E DUP9 DUP3 DUP10 ADD PUSH2 0xA07 JUMP JUMPDEST SWAP4 POP POP PUSH1 0x60 PUSH2 0xAAF DUP9 DUP3 DUP10 ADD PUSH2 0xA3D JUMP JUMPDEST SWAP3 POP POP PUSH1 0x80 PUSH2 0xAC0 DUP9 DUP3 DUP10 ADD PUSH2 0xA3D JUMP JUMPDEST SWAP2 POP POP SWAP3 SWAP6 POP SWAP3 SWAP6 SWAP1 SWAP4 POP JUMP JUMPDEST PUSH1 0x0 DUP2 MLOAD SWAP1 POP SWAP2 SWAP1 POP JUMP JUMPDEST PUSH1 0x0 DUP3 DUP3 MSTORE PUSH1 0x20 DUP3 ADD SWAP1 POP SWAP3 SWAP2 POP POP JUMP JUMPDEST PUSH1 0x0 JUMPDEST DUP4 DUP2 LT ISZERO PUSH2 0xB07 JUMPI DUP1 DUP3 ADD MLOAD DUP2 DUP5 ADD MSTORE PUSH1 0x20 DUP2 ADD SWAP1 POP PUSH2 0xAEC JUMP JUMPDEST PUSH1 0x0 DUP5 DUP5 ADD MSTORE POP POP POP POP JUMP JUMPDEST PUSH1 0x0 PUSH1 0x1F NOT PUSH1 0x1F DUP4 ADD AND SWAP1 POP SWAP2 SWAP1 POP JUMP JUMPDEST PUSH1 0x0 PUSH2 0xB2F DUP3 PUSH2 0xACD JUMP JUMPDEST PUSH2 0xB39 DUP2 DUP6 PUSH2 0xAD8 JUMP JUMPDEST SWAP4 POP PUSH2 0xB49 DUP2 DUP6 PUSH1 0x20 DUP7 ADD PUSH2 0xAE9 JUMP JUMPDEST PUSH2 0xB52 DUP2 PUSH2 0xB13 JUMP JUMPDEST DUP5 ADD SWAP2 POP POP SWAP3 SWAP2 POP POP JUMP JUMPDEST PUSH1 0x0 PUSH1 0x20 DUP3 ADD SWAP1 POP DUP2 DUP2 SUB PUSH1 0x0 DUP4 ADD MSTORE PUSH2 0xB77 DUP2 DUP5 PUSH2 0xB24 JUMP JUMPDEST SWAP1 POP SWAP3 SWAP2 POP POP JUMP JUMPDEST PUSH1 0x0 DUP2 SWAP1 POP SWAP3 SWAP2 POP POP JUMP JUMPDEST PUSH32 0x3C746578742066696C6C3D22233630334445422220786D6C3A73706163653D22 PUSH1 0x0 DUP3 ADD MSTORE PUSH32 0x707265736572766522207374796C653D2277686974652D73706163653A207072 PUSH1 0x20 DUP3 ADD MSTORE PUSH32 0x652220666F6E742D73697A653D2232302220666F6E742D7765696768743D2236 PUSH1 0x40 DUP3 ADD MSTORE PUSH32 0x303022206C65747465722D73706163696E673D2230656D223E3C747370616E20 PUSH1 0x60 DUP3 ADD MSTORE PUSH32 0x783D223237372220793D223537302E323733223E000000000000000000000000 PUSH1 0x80 DUP3 ADD MSTORE POP JUMP JUMPDEST PUSH1 0x0 PUSH2 0xC58 PUSH1 0x94 DUP4 PUSH2 0xB7F JUMP JUMPDEST SWAP2 POP PUSH2 0xC63 DUP3 PUSH2 0xB8A JUMP JUMPDEST PUSH1 0x94 DUP3 ADD SWAP1 POP SWAP2 SWAP1 POP JUMP JUMPDEST PUSH1 0x0 PUSH2 0xC79 DUP3 PUSH2 0xACD JUMP JUMPDEST PUSH2 0xC83 DUP2 DUP6 PUSH2 0xB7F JUMP JUMPDEST SWAP4 POP PUSH2 0xC93 DUP2 DUP6 PUSH1 0x20 DUP7 ADD PUSH2 0xAE9 JUMP JUMPDEST DUP1 DUP5 ADD SWAP2 POP POP SWAP3 SWAP2 POP POP JUMP JUMPDEST PUSH32 0x3C2F747370616E3E3C2F746578743E0000000000000000000000000000000000 PUSH1 0x0 DUP3 ADD MSTORE POP JUMP JUMPDEST PUSH1 0x0 PUSH2 0xCD5 PUSH1 0xF DUP4 PUSH2 0xB7F JUMP JUMPDEST SWAP2 POP PUSH2 0xCE0 DUP3 PUSH2 0xC9F JUMP JUMPDEST PUSH1 0xF DUP3 ADD SWAP1 POP SWAP2 SWAP1 POP JUMP JUMPDEST PUSH1 0x0 PUSH2 0xCF6 DUP3 PUSH2 0xC4B JUMP JUMPDEST SWAP2 POP PUSH2 0xD02 DUP3 DUP5 PUSH2 0xC6E JUMP JUMPDEST SWAP2 POP PUSH2 0xD0D DUP3 PUSH2 0xCC8 JUMP JUMPDEST SWAP2 POP DUP2 SWAP1 POP SWAP3 SWAP2 POP POP JUMP JUMPDEST PUSH32 0x4E487B7100000000000000000000000000000000000000000000000000000000 PUSH1 0x0 MSTORE PUSH1 0x32 PUSH1 0x4 MSTORE PUSH1 0x24 PUSH1 0x0 REVERT JUMPDEST PUSH32 0x3C746578742066696C6C3D22233630334445422220786D6C3A73706163653D22 PUSH1 0x0 DUP3 ADD MSTORE PUSH32 0x707265736572766522207374796C653D2277686974652D73706163653A207072 PUSH1 0x20 DUP3 ADD MSTORE PUSH32 0x652220666F6E742D73697A653D2232302220666F6E742D7765696768743D2236 PUSH1 0x40 DUP3 ADD MSTORE PUSH32 0x303022206C65747465722D73706163696E673D2230656D223E3C747370616E20 PUSH1 0x60 DUP3 ADD MSTORE PUSH32 0x783D223237372220793D223635392E323733223E000000000000000000000000 PUSH1 0x80 DUP3 ADD MSTORE POP JUMP JUMPDEST PUSH1 0x0 PUSH2 0xE15 PUSH1 0x94 DUP4 PUSH2 0xB7F JUMP JUMPDEST SWAP2 POP PUSH2 0xE20 DUP3 PUSH2 0xD47 JUMP JUMPDEST PUSH1 0x94 DUP3 ADD SWAP1 POP SWAP2 SWAP1 POP JUMP JUMPDEST PUSH32 0x4E487B7100000000000000000000000000000000000000000000000000000000 PUSH1 0x0 MSTORE PUSH1 0x22 PUSH1 0x4 MSTORE PUSH1 0x24 PUSH1 0x0 REVERT JUMPDEST PUSH1 0x0 PUSH1 0x2 DUP3 DIV SWAP1 POP PUSH1 0x1 DUP3 AND DUP1 PUSH2 0xE72 JUMPI PUSH1 0x7F DUP3 AND SWAP2 POP JUMPDEST PUSH1 0x20 DUP3 LT DUP2 SUB PUSH2 0xE85 JUMPI PUSH2 0xE84 PUSH2 0xE2B JUMP JUMPDEST JUMPDEST POP SWAP2 SWAP1 POP JUMP JUMPDEST PUSH1 0x0 DUP2 SWAP1 POP DUP2 PUSH1 0x0 MSTORE PUSH1 0x20 PUSH1 0x0 KECCAK256 SWAP1 POP SWAP2 SWAP1 POP JUMP JUMPDEST PUSH1 0x0 DUP2 SLOAD PUSH2 0xEAD DUP2 PUSH2 0xE5A JUMP JUMPDEST PUSH2 0xEB7 DUP2 DUP7 PUSH2 0xB7F JUMP JUMPDEST SWAP5 POP PUSH1 0x1 DUP3 AND PUSH1 0x0 DUP2 EQ PUSH2 0xED2 JUMPI PUSH1 0x1 DUP2 EQ PUSH2 0xEE7 JUMPI PUSH2 0xF1A JUMP JUMPDEST PUSH1 0xFF NOT DUP4 AND DUP7 MSTORE DUP2 ISZERO ISZERO DUP3 MUL DUP7 ADD SWAP4 POP PUSH2 0xF1A JUMP JUMPDEST PUSH2 0xEF0 DUP6 PUSH2 0xE8B JUMP JUMPDEST PUSH1 0x0 JUMPDEST DUP4 DUP2 LT ISZERO PUSH2 0xF12 JUMPI DUP2 SLOAD DUP2 DUP10 ADD MSTORE PUSH1 0x1 DUP3 ADD SWAP2 POP PUSH1 0x20 DUP2 ADD SWAP1 POP PUSH2 0xEF3 JUMP JUMPDEST DUP4 DUP9 ADD SWAP6 POP POP POP JUMPDEST POP POP POP SWAP3 SWAP2 POP POP JUMP JUMPDEST PUSH32 0x2000000000000000000000000000000000000000000000000000000000000000 PUSH1 0x0 DUP3 ADD MSTORE POP JUMP JUMPDEST PUSH1 0x0 PUSH2 0xF59 PUSH1 0x1 DUP4 PUSH2 0xB7F JUMP JUMPDEST SWAP2 POP PUSH2 0xF64 DUP3 PUSH2 0xF23 JUMP JUMPDEST PUSH1 0x1 DUP3 ADD SWAP1 POP SWAP2 SWAP1 POP JUMP JUMPDEST PUSH32 0x2C20000000000000000000000000000000000000000000000000000000000000 PUSH1 0x0 DUP3 ADD MSTORE POP JUMP JUMPDEST PUSH1 0x0 PUSH2 0xFA5 PUSH1 0x2 DUP4 PUSH2 0xB7F JUMP JUMPDEST SWAP2 POP PUSH2 0xFB0 DUP3 PUSH2 0xF6F JUMP JUMPDEST PUSH1 0x2 DUP3 ADD SWAP1 POP SWAP2 SWAP1 POP JUMP JUMPDEST PUSH32 0x262331303B3C2F747370616E3E3C747370616E20783D223237372220793D2236 PUSH1 0x0 DUP3 ADD MSTORE PUSH32 0x38332E323733223E262331303B3C2F747370616E3E3C747370616E20783D2232 PUSH1 0x20 DUP3 ADD MSTORE PUSH32 0x37372220793D223730372E323733223E262331303B3C2F747370616E3E3C7473 PUSH1 0x40 DUP3 ADD MSTORE PUSH32 0x70616E20783D223237372220793D223733312E323733223E262331303B3C2F74 PUSH1 0x60 DUP3 ADD MSTORE PUSH32 0x7370616E3E3C747370616E20783D223237372220793D223735352E323733223E PUSH1 0x80 DUP3 ADD MSTORE PUSH32 0x262331303B3C2F747370616E3E3C747370616E20783D223237372220793D2237 PUSH1 0xA0 DUP3 ADD MSTORE PUSH32 0x37392E323733223E262331303B3C2F747370616E3E3C747370616E20783D2232 PUSH1 0xC0 DUP3 ADD MSTORE PUSH32 0x37372220793D223830332E323733223E262331303B3C2F747370616E3E3C7473 PUSH1 0xE0 DUP3 ADD MSTORE PUSH32 0x70616E20783D223237372220793D223832372E323733223E262331303B3C2F74 PUSH2 0x100 DUP3 ADD MSTORE PUSH32 0x7370616E3E3C747370616E20783D223237372220793D223835312E323733223E PUSH2 0x120 DUP3 ADD MSTORE PUSH32 0x262331303B3C2F747370616E3E3C747370616E20783D223237372220793D2238 PUSH2 0x140 DUP3 ADD MSTORE PUSH32 0x37352E323733223E262331303B3C2F747370616E3E3C747370616E20783D2232 PUSH2 0x160 DUP3 ADD MSTORE PUSH32 0x37372220793D223839392E323733223E262331303B3C2F747370616E3E3C7473 PUSH2 0x180 DUP3 ADD MSTORE PUSH32 0x70616E20783D223237372220793D223932332E323733223E262331303B3C2F74 PUSH2 0x1A0 DUP3 ADD MSTORE PUSH32 0x7370616E3E3C747370616E20783D223237372220793D223934372E323733223E PUSH2 0x1C0 DUP3 ADD MSTORE PUSH32 0x262331303B3C2F747370616E3E3C2F746578743E000000000000000000000000 PUSH2 0x1E0 DUP3 ADD MSTORE POP JUMP JUMPDEST PUSH1 0x0 PUSH2 0x1234 PUSH2 0x1F4 DUP4 PUSH2 0xB7F JUMP JUMPDEST SWAP2 POP PUSH2 0x123F DUP3 PUSH2 0xFBB JUMP JUMPDEST PUSH2 0x1F4 DUP3 ADD SWAP1 POP SWAP2 SWAP1 POP JUMP JUMPDEST PUSH1 0x0 PUSH2 0x1256 DUP3 PUSH2 0xE08 JUMP JUMPDEST SWAP2 POP PUSH2 0x1262 DUP3 DUP7 PUSH2 0xEA0 JUMP JUMPDEST SWAP2 POP PUSH2 0x126D DUP3 PUSH2 0xF4C JUMP JUMPDEST SWAP2 POP PUSH2 0x1279 DUP3 DUP6 PUSH2 0xC6E JUMP JUMPDEST SWAP2 POP PUSH2 0x1284 DUP3 PUSH2 0xF98 JUMP JUMPDEST SWAP2 POP PUSH2 0x1290 DUP3 DUP5 PUSH2 0xC6E JUMP JUMPDEST SWAP2 POP PUSH2 0x129B DUP3 PUSH2 0x1226 JUMP JUMPDEST SWAP2 POP DUP2 SWAP1 POP SWAP5 SWAP4 POP POP POP POP JUMP JUMPDEST PUSH32 0x3C7376672077696474683D223130323422206865696768743D22313032342220 PUSH1 0x0 DUP3 ADD MSTORE PUSH32 0x76696577426F783D2230203020313032342031303234222066696C6C3D226E6F PUSH1 0x20 DUP3 ADD MSTORE PUSH32 0x6E652220786D6C6E733D22687474703A2F2F7777772E77332E6F72672F323030 PUSH1 0x40 DUP3 ADD MSTORE PUSH32 0x302F737667223E00000000000000000000000000000000000000000000000000 PUSH1 0x60 DUP3 ADD MSTORE POP JUMP JUMPDEST PUSH1 0x0 PUSH2 0x1350 PUSH1 0x67 DUP4 PUSH2 0xB7F JUMP JUMPDEST SWAP2 POP PUSH2 0x135B DUP3 PUSH2 0x12A8 JUMP JUMPDEST PUSH1 0x67 DUP3 ADD SWAP1 POP SWAP2 SWAP1 POP JUMP JUMPDEST PUSH32 0x3C7374796C653E746578742C20747370616E207B20666F6E742D66616D696C79 PUSH1 0x0 DUP3 ADD MSTORE PUSH32 0x3A2022496E746572222C20417269616C2C2022526F626F746F20436F6E64656E PUSH1 0x20 DUP3 ADD MSTORE PUSH32 0x736564222C20224F70656E2053616E73222C2073616E733B20207D3C2F737479 PUSH1 0x40 DUP3 ADD MSTORE PUSH32 0x6C653E0000000000000000000000000000000000000000000000000000000000 PUSH1 0x60 DUP3 ADD MSTORE POP JUMP JUMPDEST PUSH1 0x0 PUSH2 0x140E PUSH1 0x63 DUP4 PUSH2 0xB7F JUMP JUMPDEST SWAP2 POP PUSH2 0x1419 DUP3 PUSH2 0x1366 JUMP JUMPDEST PUSH1 0x63 DUP3 ADD SWAP1 POP SWAP2 SWAP1 POP JUMP JUMPDEST PUSH32 0x3C726563742077696474683D223130323422206865696768743D223130323422 PUSH1 0x0 DUP3 ADD MSTORE PUSH32 0x2066696C6C3D222346324336354522202F3E203C672066696C7465723D227572 PUSH1 0x20 DUP3 ADD MSTORE PUSH32 0x6C282366696C746572305F645F323031385F3236303729223E203C6720636C69 PUSH1 0x40 DUP3 ADD MSTORE PUSH32 0x702D706174683D2275726C2823636C6970305F323031385F3236303729223E20 PUSH1 0x60 DUP3 ADD MSTORE PUSH32 0x3C7061746820643D224D3233372035344838313156313236483233375635345A PUSH1 0x80 DUP3 ADD MSTORE PUSH32 0x222066696C6C3D222346354635463522202F3E203C7061746820643D224D3438 PUSH1 0xA0 DUP3 ADD MSTORE PUSH32 0x38203930433438382038372E37393039203438392E3739312038362034393220 PUSH1 0xC0 DUP3 ADD MSTORE PUSH32 0x383648353536433535382E323039203836203536302038372E37393039203536 PUSH1 0xE0 DUP3 ADD MSTORE PUSH32 0x30203930563930433536302039322E32303931203535382E3230392039342035 PUSH2 0x100 DUP3 ADD MSTORE PUSH32 0x353620393448343932433438392E373931203934203438382039322E32303931 PUSH2 0x120 DUP3 ADD MSTORE PUSH32 0x203438382039305639305A222066696C6C3D222346324336354522202F3E203C PUSH2 0x140 DUP3 ADD MSTORE PUSH32 0x726563742077696474683D2235373422206865696768743D2231363622207472 PUSH2 0x160 DUP3 ADD MSTORE PUSH32 0x616E73666F726D3D227472616E736C617465283233372031323629222066696C PUSH2 0x180 DUP3 ADD MSTORE PUSH32 0x6C3D222346354635463522202F3E203C746578742066696C6C3D222332313138 PUSH2 0x1A0 DUP3 ADD MSTORE PUSH32 0x31342220786D6C3A73706163653D22707265736572766522207374796C653D22 PUSH2 0x1C0 DUP3 ADD MSTORE PUSH32 0x77686974652D73706163653A207072652220666F6E742D73697A653D22323822 PUSH2 0x1E0 DUP3 ADD MSTORE PUSH32 0x206C65747465722D73706163696E673D2230656D223E3C747370616E20783D22 PUSH2 0x200 DUP3 ADD MSTORE PUSH32 0x3237372220793D223233372E383634223E627920556E6C6F636B204C6162733C PUSH2 0x220 DUP3 ADD MSTORE PUSH32 0x2F747370616E3E3C2F746578743E203C746578742066696C6C3D222332313138 PUSH2 0x240 DUP3 ADD MSTORE PUSH32 0x31342220786D6C3A73706163653D22707265736572766522207374796C653D22 PUSH2 0x260 DUP3 ADD MSTORE PUSH32 0x77686974652D73706163653A207072652220666F6E742D73697A653D22313222 PUSH2 0x280 DUP3 ADD MSTORE PUSH32 0x206C65747465722D73706163696E673D2230656D223E3C747370616E20783D22 PUSH2 0x2A0 DUP3 ADD MSTORE PUSH32 0x3237372220793D223230332E383634223E262331303B3C2F747370616E3E3C2F PUSH2 0x2C0 DUP3 ADD MSTORE PUSH32 0x746578743E203C746578742066696C6C3D2275726C28237061696E74305F6C69 PUSH2 0x2E0 DUP3 ADD MSTORE PUSH32 0x6E6561725F323031385F32363037292220786D6C3A73706163653D2270726573 PUSH2 0x300 DUP3 ADD MSTORE PUSH32 0x6572766522207374796C653D2277686974652D73706163653A20707265222066 PUSH2 0x320 DUP3 ADD MSTORE PUSH32 0x6F6E742D73697A653D2234382220666F6E742D7765696768743D223830302220 PUSH2 0x340 DUP3 ADD MSTORE PUSH32 0x6C65747465722D73706163696E673D2230656D223E3C747370616E20783D2232 PUSH2 0x360 DUP3 ADD MSTORE PUSH32 0x37372220793D223231302E343535223E554E4C4F434B205052494D453C2F7473 PUSH2 0x380 DUP3 ADD MSTORE PUSH32 0x70616E3E3C2F746578743E203C726563742077696474683D2235373422206865 PUSH2 0x3A0 DUP3 ADD MSTORE PUSH32 0x696768743D2235393822207472616E73666F726D3D227472616E736C61746528 PUSH2 0x3C0 DUP3 ADD MSTORE PUSH32 0x3233372032393229222066696C6C3D22776869746522202F3E203C7465787420 PUSH2 0x3E0 DUP3 ADD MSTORE PUSH32 0x66696C6C3D22233231313831342220786D6C3A73706163653D22707265736572 PUSH2 0x400 DUP3 ADD MSTORE PUSH32 0x766522207374796C653D2277686974652D73706163653A207072652220666F6E PUSH2 0x420 DUP3 ADD MSTORE PUSH32 0x742D73697A653D2235312220666F6E742D7765696768743D22626F6C6422206C PUSH2 0x440 DUP3 ADD MSTORE PUSH32 0x65747465722D73706163696E673D2230656D223E3C747370616E20783D223237 PUSH2 0x460 DUP3 ADD MSTORE PUSH32 0x372220793D223338392E353435223E4D7920556E6C6F636B203C2F747370616E PUSH2 0x480 DUP3 ADD MSTORE PUSH32 0x3E3C747370616E20783D223237372220793D223435312E353435223E5072696D PUSH2 0x4A0 DUP3 ADD MSTORE PUSH32 0x6520506173733C2F747370616E3E3C2F746578743E203C746578742066696C6C PUSH2 0x4C0 DUP3 ADD MSTORE PUSH32 0x3D22233231313831342220786D6C3A73706163653D2270726573657276652220 PUSH2 0x4E0 DUP3 ADD MSTORE PUSH32 0x7374796C653D2277686974652D73706163653A207072652220666F6E742D7369 PUSH2 0x500 DUP3 ADD MSTORE PUSH32 0x7A653D2232342220666F6E742D7765696768743D2235303022206C6574746572 PUSH2 0x520 DUP3 ADD MSTORE PUSH32 0x2D73706163696E673D2230656D223E3C747370616E20783D223237372220793D PUSH2 0x540 DUP3 ADD MSTORE PUSH32 0x223534302E353435223E4D656D62657220416464726573733C2F747370616E3E PUSH2 0x560 DUP3 ADD MSTORE PUSH32 0x3C2F746578743E203C746578742066696C6C3D22233231313831342220786D6C PUSH2 0x580 DUP3 ADD MSTORE PUSH32 0x3A73706163653D22707265736572766522207374796C653D2277686974652D73 PUSH2 0x5A0 DUP3 ADD MSTORE PUSH32 0x706163653A207072652220666F6E742D73697A653D2231382220666F6E742D77 PUSH2 0x5C0 DUP3 ADD MSTORE PUSH32 0x65696768743D2235303022206C65747465722D73706163696E673D2230656D22 PUSH2 0x5E0 DUP3 ADD MSTORE PUSH32 0x3E3C747370616E20783D223237372220793D223438392E353435223E26233130 PUSH2 0x600 DUP3 ADD MSTORE PUSH32 0x3B3C2F747370616E3E3C747370616E20783D223237372220793D223531312E35 PUSH2 0x620 DUP3 ADD MSTORE PUSH32 0x3435223E262331303B3C2F747370616E3E3C2F746578743E0000000000000000 PUSH2 0x640 DUP3 ADD MSTORE POP JUMP JUMPDEST PUSH1 0x0 PUSH2 0x1BF2 PUSH2 0x658 DUP4 PUSH2 0xB7F JUMP JUMPDEST SWAP2 POP PUSH2 0x1BFD DUP3 PUSH2 0x1424 JUMP JUMPDEST PUSH2 0x658 DUP3 ADD SWAP1 POP SWAP2 SWAP1 POP JUMP JUMPDEST PUSH32 0x3C746578742066696C6C3D22233231313831342220786D6C3A73706163653D22 PUSH1 0x0 DUP3 ADD MSTORE PUSH32 0x707265736572766522207374796C653D2277686974652D73706163653A207072 PUSH1 0x20 DUP3 ADD MSTORE PUSH32 0x652220666F6E742D73697A653D2232342220666F6E742D7765696768743D2235 PUSH1 0x40 DUP3 ADD MSTORE PUSH32 0x303022206C65747465722D73706163696E673D2230656D223E3C747370616E20 PUSH1 0x60 DUP3 ADD MSTORE PUSH32 0x783D223237372220793D223632392E353435223E56616C6964205468726F7567 PUSH1 0x80 DUP3 ADD MSTORE PUSH32 0x683C2F747370616E3E3C2F746578743E3C746578742066696C6C3D2223323131 PUSH1 0xA0 DUP3 ADD MSTORE PUSH32 0x3831342220786D6C3A73706163653D22707265736572766522207374796C653D PUSH1 0xC0 DUP3 ADD MSTORE PUSH32 0x2277686974652D73706163653A207072652220666F6E742D73697A653D223138 PUSH1 0xE0 DUP3 ADD MSTORE PUSH32 0x2220666F6E742D7765696768743D2235303022206C65747465722D7370616369 PUSH2 0x100 DUP3 ADD MSTORE PUSH32 0x6E673D2230656D223E3C747370616E20783D223237372220793D223630302E35 PUSH2 0x120 DUP3 ADD MSTORE PUSH32 0x3435223E262331303B3C2F747370616E3E3C2F746578743E0000000000000000 PUSH2 0x140 DUP3 ADD MSTORE POP JUMP JUMPDEST PUSH1 0x0 PUSH2 0x1DBF PUSH2 0x158 DUP4 PUSH2 0xB7F JUMP JUMPDEST SWAP2 POP PUSH2 0x1DCA DUP3 PUSH2 0x1C09 JUMP JUMPDEST PUSH2 0x158 DUP3 ADD SWAP1 POP SWAP2 SWAP1 POP JUMP JUMPDEST PUSH32 0x3C726563742077696474683D2235373422206865696768743D22383622207472 PUSH1 0x0 DUP3 ADD MSTORE PUSH32 0x616E73666F726D3D227472616E736C617465283233372038393029222066696C PUSH1 0x20 DUP3 ADD MSTORE PUSH32 0x6C3D22776869746522202F3E3C2F673E3C2F673E3C706174682066696C6C2D72 PUSH1 0x40 DUP3 ADD MSTORE PUSH32 0x756C653D226576656E6F64642220636C69702D72756C653D226576656E6F6464 PUSH1 0x60 DUP3 ADD MSTORE PUSH32 0x2220643D224D3535352E35313920304C343837203930483535332E3438314C36 PUSH1 0x80 DUP3 ADD MSTORE PUSH32 0x32322030483535352E3531395A222066696C6C3D22776869746522202F3E3C70 PUSH1 0xA0 DUP3 ADD MSTORE PUSH32 0x6174682066696C6C2D72756C653D226576656E6F64642220636C69702D72756C PUSH1 0xC0 DUP3 ADD MSTORE PUSH32 0x653D226576656E6F64642220643D224D34323420304C3439322E353139203930 PUSH1 0xE0 DUP3 ADD MSTORE PUSH32 0x483535394C3439302E3438312030483432345A222066696C6C3D227768697465 PUSH2 0x100 DUP3 ADD MSTORE PUSH32 0x22202F3E3C646566733E3C66696C7465722069643D2266696C746572305F645F PUSH2 0x120 DUP3 ADD MSTORE PUSH32 0x323031385F323630372220783D223230392220793D223236222077696474683D PUSH2 0x140 DUP3 ADD MSTORE PUSH32 0x2236333022206865696768743D22393738222066696C746572556E6974733D22 PUSH2 0x160 DUP3 ADD MSTORE PUSH32 0x7573657253706163654F6E5573652220636F6C6F722D696E746572706F6C6174 PUSH2 0x180 DUP3 ADD MSTORE PUSH32 0x696F6E2D66696C746572733D2273524742223E3C6665466C6F6F6420666C6F6F PUSH2 0x1A0 DUP3 ADD MSTORE PUSH32 0x642D6F7061636974793D22302220726573756C743D224261636B67726F756E64 PUSH2 0x1C0 DUP3 ADD MSTORE PUSH32 0x496D61676546697822202F3E3C6665436F6C6F724D617472697820696E3D2253 PUSH2 0x1E0 DUP3 ADD MSTORE PUSH32 0x6F75726365416C7068612220747970653D226D6174726978222076616C756573 PUSH2 0x200 DUP3 ADD MSTORE PUSH32 0x3D22302030203020302030203020302030203020302030203020302030203020 PUSH2 0x220 DUP3 ADD MSTORE PUSH32 0x30203020302031323720302220726573756C743D2268617264416C7068612220 PUSH2 0x240 DUP3 ADD MSTORE PUSH32 0x2F3E3C66654D6F7270686F6C6F6779207261646975733D223422206F70657261 PUSH2 0x260 DUP3 ADD MSTORE PUSH32 0x746F723D2264696C6174652220696E3D22536F75726365416C70686122207265 PUSH2 0x280 DUP3 ADD MSTORE PUSH32 0x73756C743D22656666656374315F64726F70536861646F775F323031385F3236 PUSH2 0x2A0 DUP3 ADD MSTORE PUSH32 0x303722202F3E3C66654F6666736574202F3E3C6665476175737369616E426C75 PUSH2 0x2C0 DUP3 ADD MSTORE PUSH32 0x7220737464446576696174696F6E3D22313222202F3E3C6665436F6C6F724D61 PUSH2 0x2E0 DUP3 ADD MSTORE PUSH32 0x7472697820747970653D226D6174726978222076616C7565733D223020302030 PUSH2 0x300 DUP3 ADD MSTORE PUSH32 0x203020302E313239343132203020302030203020302E30393431313736203020 PUSH2 0x320 DUP3 ADD MSTORE PUSH32 0x302030203020302E3037383433313420302030203020302E3135203022202F3E PUSH2 0x340 DUP3 ADD MSTORE PUSH32 0x3C6665426C656E64206D6F64653D226E6F726D616C2220696E323D224261636B PUSH2 0x360 DUP3 ADD MSTORE PUSH32 0x67726F756E64496D6167654669782220726573756C743D22656666656374315F PUSH2 0x380 DUP3 ADD MSTORE PUSH32 0x64726F70536861646F775F323031385F3236303722202F3E3C6665426C656E64 PUSH2 0x3A0 DUP3 ADD MSTORE PUSH32 0x206D6F64653D226E6F726D616C2220696E3D22536F7572636547726170686963 PUSH2 0x3C0 DUP3 ADD MSTORE PUSH32 0x2220696E323D22656666656374315F64726F70536861646F775F323031385F32 PUSH2 0x3E0 DUP3 ADD MSTORE PUSH32 0x3630372220726573756C743D22736861706522202F3E3C2F66696C7465723E3C PUSH2 0x400 DUP3 ADD MSTORE PUSH32 0x6C696E6561724772616469656E742069643D227061696E74305F6C696E656172 PUSH2 0x420 DUP3 ADD MSTORE PUSH32 0x5F323031385F32363037222078313D22323737222079313D223137312E343931 PUSH2 0x440 DUP3 ADD MSTORE PUSH32 0x222078323D223332382E363235222079323D2231342E34333931222067726164 PUSH2 0x460 DUP3 ADD MSTORE PUSH32 0x69656E74556E6974733D227573657253706163654F6E557365223E3C73746F70 PUSH2 0x480 DUP3 ADD MSTORE PUSH32 0x2073746F702D636F6C6F723D222336303344454222202F3E3C73746F70206F66 PUSH2 0x4A0 DUP3 ADD MSTORE PUSH32 0x667365743D2231222073746F702D636F6C6F723D222332374331443622202F3E PUSH2 0x4C0 DUP3 ADD MSTORE PUSH32 0x3C2F6C696E6561724772616469656E743E3C636C6970506174682069643D2263 PUSH2 0x4E0 DUP3 ADD MSTORE PUSH32 0x6C6970305F323031385F32363037223E3C7265637420783D223233372220793D PUSH2 0x500 DUP3 ADD MSTORE PUSH32 0x223534222077696474683D2235373422206865696768743D2239323222207278 PUSH2 0x520 DUP3 ADD MSTORE PUSH32 0x3D223234222066696C6C3D22776869746522202F3E3C2F636C6970506174683E PUSH2 0x540 DUP3 ADD MSTORE PUSH32 0x3C2F646566733E3C2F7376673E00000000000000000000000000000000000000 PUSH2 0x560 DUP3 ADD MSTORE POP JUMP JUMPDEST PUSH1 0x0 PUSH2 0x2493 PUSH2 0x56D DUP4 PUSH2 0xB7F JUMP JUMPDEST SWAP2 POP PUSH2 0x249E DUP3 PUSH2 0x1DD6 JUMP JUMPDEST PUSH2 0x56D DUP3 ADD SWAP1 POP SWAP2 SWAP1 POP JUMP JUMPDEST PUSH1 0x0 PUSH2 0x24B5 DUP3 PUSH2 0x1343 JUMP JUMPDEST SWAP2 POP PUSH2 0x24C0 DUP3 PUSH2 0x1401 JUMP JUMPDEST SWAP2 POP PUSH2 0x24CB DUP3 PUSH2 0x1BE4 JUMP JUMPDEST SWAP2 POP PUSH2 0x24D7 DUP3 DUP6 PUSH2 0xC6E JUMP JUMPDEST SWAP2 POP PUSH2 0x24E2 DUP3 PUSH2 0x1DB1 JUMP JUMPDEST SWAP2 POP PUSH2 0x24EE DUP3 DUP5 PUSH2 0xC6E JUMP JUMPDEST SWAP2 POP PUSH2 0x24F9 DUP3 PUSH2 0x2485 JUMP JUMPDEST SWAP2 POP DUP2 SWAP1 POP SWAP4 SWAP3 POP POP POP JUMP JUMPDEST PUSH1 0x0 PUSH2 0x2511 DUP3 DUP5 PUSH2 0xC6E JUMP JUMPDEST SWAP2 POP DUP2 SWAP1 POP SWAP3 SWAP2 POP POP JUMP JUMPDEST PUSH32 0x646174613A696D6167652F7376672B786D6C3B6261736536342C000000000000 PUSH1 0x0 DUP3 ADD MSTORE POP JUMP JUMPDEST PUSH1 0x0 PUSH2 0x2552 PUSH1 0x1A DUP4 PUSH2 0xB7F JUMP JUMPDEST SWAP2 POP PUSH2 0x255D DUP3 PUSH2 0x251C JUMP JUMPDEST PUSH1 0x1A DUP3 ADD SWAP1 POP SWAP2 SWAP1 POP JUMP JUMPDEST PUSH1 0x0 PUSH2 0x2573 DUP3 PUSH2 0x2545 JUMP JUMPDEST SWAP2 POP PUSH2 0x257F DUP3 DUP5 PUSH2 0xC6E JUMP JUMPDEST SWAP2 POP DUP2 SWAP1 POP SWAP3 SWAP2 POP POP JUMP JUMPDEST PUSH32 0x7B20226E616D6522203A2022556E6C6F636B205072696D65222C202265787465 PUSH1 0x0 DUP3 ADD MSTORE PUSH32 0x726E616C5F75726C223A2268747470733A2F2F6170702E756E6C6F636B2D7072 PUSH1 0x20 DUP3 ADD MSTORE PUSH32 0x6F746F636F6C2E636F6D2F7072696D65222C226465736372697074696F6E223A PUSH1 0x40 DUP3 ADD MSTORE PUSH32 0x22556E6C6F636B205072696D65206F666665727320656E68616E636564206665 PUSH1 0x60 DUP3 ADD MSTORE PUSH32 0x6174757265732C206D6F6E74686C792045544820726577617264732C20756E6C PUSH1 0x80 DUP3 ADD MSTORE PUSH32 0x696D69746564206576656E74732C20616E64206578636C757369766520706172 PUSH1 0xA0 DUP3 ADD MSTORE PUSH32 0x746E657220646973636F756E747320666F72206D656D626572732E204272696E PUSH1 0xC0 DUP3 ADD MSTORE PUSH32 0x6720796F7572206F6E636861696E20657870657269656E63657320746F207468 PUSH1 0xE0 DUP3 ADD MSTORE PUSH32 0x65206E657874206C6576656C20776974682061207072656D69756D206D656D62 PUSH2 0x100 DUP3 ADD MSTORE PUSH32 0x657273686970207468617420776F726B73206163726F737320616C6C20746865 PUSH2 0x120 DUP3 ADD MSTORE PUSH32 0x20617070732066726F6D20556E6C6F636B204C616273222C22696D616765223A PUSH2 0x140 DUP3 ADD MSTORE PUSH32 0x2200000000000000000000000000000000000000000000000000000000000000 PUSH2 0x160 DUP3 ADD MSTORE POP JUMP JUMPDEST PUSH1 0x0 PUSH2 0x2767 PUSH2 0x161 DUP4 PUSH2 0xB7F JUMP JUMPDEST SWAP2 POP PUSH2 0x2772 DUP3 PUSH2 0x258A JUMP JUMPDEST PUSH2 0x161 DUP3 ADD SWAP1 POP SWAP2 SWAP1 POP JUMP JUMPDEST PUSH32 0x227D000000000000000000000000000000000000000000000000000000000000 PUSH1 0x0 DUP3 ADD MSTORE POP JUMP JUMPDEST PUSH1 0x0 PUSH2 0x27B4 PUSH1 0x2 DUP4 PUSH2 0xB7F JUMP JUMPDEST SWAP2 POP PUSH2 0x27BF DUP3 PUSH2 0x277E JUMP JUMPDEST PUSH1 0x2 DUP3 ADD SWAP1 POP SWAP2 SWAP1 POP JUMP JUMPDEST PUSH1 0x0 PUSH2 0x27D5 DUP3 PUSH2 0x2759 JUMP JUMPDEST SWAP2 POP PUSH2 0x27E1 DUP3 DUP5 PUSH2 0xC6E JUMP JUMPDEST SWAP2 POP PUSH2 0x27EC DUP3 PUSH2 0x27A7 JUMP JUMPDEST SWAP2 POP DUP2 SWAP1 POP SWAP3 SWAP2 POP POP JUMP JUMPDEST PUSH32 0x646174613A6170706C69636174696F6E2F6A736F6E3B6261736536342C000000 PUSH1 0x0 DUP3 ADD MSTORE POP JUMP JUMPDEST PUSH1 0x0 PUSH2 0x282D PUSH1 0x1D DUP4 PUSH2 0xB7F JUMP JUMPDEST SWAP2 POP PUSH2 0x2838 DUP3 PUSH2 0x27F7 JUMP JUMPDEST PUSH1 0x1D DUP3 ADD SWAP1 POP SWAP2 SWAP1 POP JUMP JUMPDEST PUSH1 0x0 PUSH2 0x284E DUP3 PUSH2 0x2820 JUMP JUMPDEST SWAP2 POP PUSH2 0x285A DUP3 DUP5 PUSH2 0xC6E JUMP JUMPDEST SWAP2 POP DUP2 SWAP1 POP SWAP3 SWAP2 POP POP JUMP JUMPDEST PUSH32 0x4E487B7100000000000000000000000000000000000000000000000000000000 PUSH1 0x0 MSTORE PUSH1 0x12 PUSH1 0x4 MSTORE PUSH1 0x24 PUSH1 0x0 REVERT JUMPDEST PUSH32 0x4E487B7100000000000000000000000000000000000000000000000000000000 PUSH1 0x0 MSTORE PUSH1 0x11 PUSH1 0x4 MSTORE PUSH1 0x24 PUSH1 0x0 REVERT JUMPDEST PUSH1 0x0 PUSH2 0x28CE DUP3 PUSH2 0xA1C JUMP JUMPDEST SWAP2 POP PUSH2 0x28D9 DUP4 PUSH2 0xA1C JUMP JUMPDEST SWAP3 POP DUP3 PUSH2 0x28E9 JUMPI PUSH2 0x28E8 PUSH2 0x2865 JUMP JUMPDEST JUMPDEST DUP3 DUP3 DIV SWAP1 POP SWAP3 SWAP2 POP POP JUMP JUMPDEST PUSH32 0x4E487B7100000000000000000000000000000000000000000000000000000000 PUSH1 0x0 MSTORE PUSH1 0x41 PUSH1 0x4 MSTORE PUSH1 0x24 PUSH1 0x0 REVERT JUMPDEST PUSH1 0x0 PUSH2 0x292E DUP3 PUSH2 0xA1C JUMP JUMPDEST SWAP2 POP PUSH2 0x2939 DUP4 PUSH2 0xA1C JUMP JUMPDEST SWAP3 POP DUP3 DUP3 ADD SWAP1 POP DUP1 DUP3 GT ISZERO PUSH2 0x2951 JUMPI PUSH2 0x2950 PUSH2 0x2894 JUMP JUMPDEST JUMPDEST SWAP3 SWAP2 POP POP JUMP JUMPDEST PUSH1 0x0 PUSH2 0x2962 DUP3 PUSH2 0xA1C JUMP JUMPDEST SWAP2 POP PUSH2 0x296D DUP4 PUSH2 0xA1C JUMP JUMPDEST SWAP3 POP DUP3 DUP3 MUL PUSH2 0x297B DUP2 PUSH2 0xA1C JUMP JUMPDEST SWAP2 POP DUP3 DUP3 DIV DUP5 EQ DUP4 ISZERO OR PUSH2 0x2992 JUMPI PUSH2 0x2991 PUSH2 0x2894 JUMP JUMPDEST JUMPDEST POP SWAP3 SWAP2 POP POP JUMP JUMPDEST PUSH1 0x0 PUSH2 0x29A4 DUP3 PUSH2 0xA1C JUMP JUMPDEST SWAP2 POP PUSH1 0x0 DUP3 SUB PUSH2 0x29B7 JUMPI PUSH2 0x29B6 PUSH2 0x2894 JUMP JUMPDEST JUMPDEST PUSH1 0x1 DUP3 SUB SWAP1 POP SWAP2 SWAP1 POP JUMP JUMPDEST PUSH2 0x29CB DUP2 PUSH2 0xA1C JUMP JUMPDEST DUP3 MSTORE POP POP JUMP JUMPDEST PUSH1 0x0 PUSH1 0x40 DUP3 ADD SWAP1 POP PUSH2 0x29E6 PUSH1 0x0 DUP4 ADD DUP6 PUSH2 0x29C2 JUMP JUMPDEST PUSH2 0x29F3 PUSH1 0x20 DUP4 ADD DUP5 PUSH2 0x29C2 JUMP JUMPDEST SWAP4 SWAP3 POP POP POP JUMP JUMPDEST PUSH1 0x0 DUP2 SWAP1 POP SWAP2 SWAP1 POP JUMP JUMPDEST PUSH1 0x0 PUSH2 0x2A0F DUP3 PUSH2 0x29FA JUMP JUMPDEST SWAP2 POP PUSH2 0x2A1A DUP4 PUSH2 0x29FA JUMP JUMPDEST SWAP3 POP DUP3 DUP3 ADD SWAP1 POP DUP3 DUP2 SLT ISZERO PUSH1 0x0 DUP4 SLT AND DUP4 DUP3 SLT PUSH1 0x0 DUP5 SLT ISZERO AND OR ISZERO PUSH2 0x2A42 JUMPI PUSH2 0x2A41 PUSH2 0x2894 JUMP JUMPDEST JUMPDEST SWAP3 SWAP2 POP POP JUMP JUMPDEST PUSH1 0x0 PUSH2 0x2A53 DUP3 PUSH2 0x29FA JUMP JUMPDEST SWAP2 POP PUSH2 0x2A5E DUP4 PUSH2 0x29FA JUMP JUMPDEST SWAP3 POP DUP3 DUP3 MUL PUSH2 0x2A6C DUP2 PUSH2 0x29FA JUMP JUMPDEST SWAP2 POP PUSH32 0x8000000000000000000000000000000000000000000000000000000000000000 DUP5 EQ PUSH1 0x0 DUP5 SLT AND ISZERO PUSH2 0x2AA4 JUMPI PUSH2 0x2AA3 PUSH2 0x2894 JUMP JUMPDEST JUMPDEST DUP3 DUP3 SDIV DUP5 EQ DUP4 ISZERO OR PUSH2 0x2AB9 JUMPI PUSH2 0x2AB8 PUSH2 0x2894 JUMP JUMPDEST JUMPDEST POP SWAP3 SWAP2 POP POP JUMP JUMPDEST PUSH1 0x0 PUSH2 0x2ACB DUP3 PUSH2 0x29FA JUMP JUMPDEST SWAP2 POP PUSH2 0x2AD6 DUP4 PUSH2 0x29FA JUMP JUMPDEST SWAP3 POP DUP3 PUSH2 0x2AE6 JUMPI PUSH2 0x2AE5 PUSH2 0x2865 JUMP JUMPDEST JUMPDEST PUSH1 0x1 PUSH1 0x0 SUB DUP4 EQ PUSH32 0x8000000000000000000000000000000000000000000000000000000000000000 DUP4 EQ AND ISZERO PUSH2 0x2B1F JUMPI PUSH2 0x2B1E PUSH2 0x2894 JUMP JUMPDEST JUMPDEST DUP3 DUP3 SDIV SWAP1 POP SWAP3 SWAP2 POP POP JUMP JUMPDEST PUSH1 0x0 PUSH2 0x2B35 DUP3 PUSH2 0x29FA JUMP JUMPDEST SWAP2 POP PUSH2 0x2B40 DUP4 PUSH2 0x29FA JUMP JUMPDEST SWAP3 POP DUP3 DUP3 SUB SWAP1 POP DUP2 DUP2 SLT PUSH1 0x0 DUP5 SLT AND DUP3 DUP3 SGT PUSH1 0x0 DUP6 SLT ISZERO AND OR ISZERO PUSH2 0x2B67 JUMPI PUSH2 0x2B66 PUSH2 0x2894 JUMP JUMPDEST JUMPDEST SWAP3 SWAP2 POP POP JUMP INVALID COINBASE TIMESTAMP NUMBER PREVRANDAO GASLIMIT CHAINID SELFBALANCE BASEFEE BLOBHASH BLOBBASEFEE 0x4B 0x4C 0x4D 0x4E 0x4F POP MLOAD MSTORE MSTORE8 SLOAD SSTORE JUMP JUMPI PC MSIZE GAS PUSH2 0x6263 PUSH5 0x6566676869 PUSH11 0x6B6C6D6E6F707172737475 PUSH23 0x7778797A303132333435363738392B2FA2646970667358 0x22 SLT KECCAK256 0xD3 0xC9 NUMBER PUSH22 0xC9941D647F1813E6546A6B90DBFF0EC14BEE82F9073 0xDB LOG1 0xE3 PUSH8 0x5D5964736F6C6343 STOP ADDMOD SHL STOP CALLER "
        },
        "methodIdentifiers": {
          "tokenURI(address,address,address,uint256,uint256)": "988b93ad"
        }
      }
    }
  }
}